:020000040800F2
:100000004837002061570008514F0008534F00083F
:10001000554F0008574F0008594F000800000000D6
:10002000000000000000000000000000833900080C
:100030005B4F0008000000003D3900086F320008E7
:10004000E5570008E9570008ED570008F157000888
:10005000F5570008F9570008FD5700080158000837
:1000600005580008095800080D58000811580008E4
:100070001558000819580008CB4F0008AB4F00086E
:100080001D58000821580008255800082958000864
:100090002D58000831580008355800083958000814
:1000A0003D580008415800084558000849580008C4
:1000B0005D4F00084D580008515800085558000879
:1000C000595800085D580008615800086558000834
:1000D000695800080F500008814F00086D5800084B
:1000E0007158000875580008795800087D580008B4
:1000F0008158000885580008895800088D58000864
:100100009158000895580008995800089D58000813
:10011000A1580008A5580008A9580008AD580008C3
:10012000B1580008B5580008B9580008BD58000873
:100130002DE9F14FB2B09946924600230691CDE9E0
:1001400000333C9A0F930DF14A0114914A7011E06B
:10015000329E57462C4617F8011B0698B0470028D8
:10016000069000F026810F98401C641E0F90F2D17B
:100170003296AA449AF80000252808D100210022CE
:1001800009910A920B910C920D910E920FE06A4622
:100190004FF0FF31504601F07FF8050002D10F9873
:1001A00000F066BED4D50125E3E741F001011AF85D
:1001B000010F2028F9D023280CD02B2804D02D287B
:1001C00005D0302809D00BE041F00201EFE741F003
:1001D0000401ECE741F00801E9E741F01001E6E72E
:1001E0002A280FD1D9F8002052F8040BC9F80020B2
:1001F0000028119003D54042119041F004010AF10A
:10020000010A14E01192DFF8EC3B0AE011989842E1
:1002100005DA00EB800402EB4402303A11920AF155
:10022000010A9AF80020A2F130000A28EED39AF8C9
:1002300000002E2803D04FF0FF32109229E01AF868
:10024000010F2A2809D1D9F8000050F8042BC9F869
:10025000000010920AF1010A1BE02D280CBF0AF1E0
:10026000010A002000221092DFF8882B0BE040B931
:10027000109B934205DA03EB830504EB4504303C05
:1002800010940AF1010A9AF80040A4F130030A2BF5
:10029000EDD3ADF848100FF660309AF8001001F079
:1002A00005F808B11AF8010B8DF84A009DF84A00CC
:1002B000682805D19AF8000068280CD1622106E070
:1002C0006C2804BF9AF800006C2804D171218DF8C5
:1002D0004A100AF1010A1FA808901AF801BBBBF1E5
:1002E00025012DD01C3900F06181091F022940F23F
:1002F0005D810E392AD0491F00F0B384093900F01E
:100300005581891E00F04985491E00F0F584491E7B
:10031000022940F24B81091F00F0EE84491F00F0D2
:10032000BA80491E00F09D84491E65D0C91E21D0A7
:10033000891E00F09684C91E00F0938400F04CBD25
:1003400025238DF87C30012109912AE06C208DF85D
:100350004A00D9F8000050F8042BC9F80000002A20
:1003600043D11499487800283DD04FF0FF340FF660
:10037000902012E09DF84A006C28EAD0D9F80000DD
:1003800050F8044BC9F800000794D4B91499487880
:1003900098B14FF0FF340FF6842000F0A1FF201A2F
:1003A00007D132981FAA04A900F065FD00287FF547
:1003B000E1AE4FF0FF3000F05BBD0FF67C20079000
:1003C000EFE7109D002D04D5204600F0A9FF04465C
:1003D00007E02A46204600F0BFFF002814BF041B98
:1003E0002C460A94DDE70FF65422329804A900F057
:1003F000C8FD0028D5D5DCE7D9F8001051F8040B6A
:10040000C9F8001020F00004002121F0FF351FABD7
:10041000CDE904450793DDE9042308993C2413B989
:100420000AB9109898B102F00F053035641EEEB28B
:100430003A2EA8BF2735120942EA03721B090D554F
:1004400008BF002A03D007980D19A842EBD308195A
:100450000790C4F13C0210980A92824209DABDF872
:100460004810821A4FF6EF7001400C92ADF8481018
:1004700097E7002895D59DF8480000F01400102853
:100480008FD1119B09990C985B1A1B1A9A1A002A92
:1004900087DD0C9285E71499487820B14FF0FF343E
:1004A0000FF69C1079E79DF84A00622862D0682810
:1004B00019D06A2840D06C2806D071284DD07428F5
:1004C0002DD07A281ED064E0D9F8001051F8040B22
:1004D000C9F8001020B94FF0FF340FF67C105CE72C
:1004E0000F9901605DE7D9F8001051F8040BC9F8C5
:1004F000001020B94FF0FF340FF65C104DE70F9954
:1005000001804EE7D9F8001051F8040BC9F800102B
:100510000028E5D14FF0FF340FF63C103DE7D9F845
:10052000001051F8040BC9F800100028D8D14FF082
:10053000FF340FF6241030E7D9F8001051F8040BFF
:10054000C9F8001020B94FF0FF340FF60C1024E763
:100550000F9AD317C0E9002323E7D9F8001051F808
:10056000040BC9F800100028F2D14FF0FF340FF649
:10057000E80012E7D9F8001051F8040BC9F8001090
:1005800020B94FF0FF340FF6D00006E70F99017045
:1005900007E7D9F8001051F8040BC9F8001000283B
:1005A0009ED14FF0FF340FF6B000F6E6D9F80020E8
:1005B000D21D22F00702C9F80020D2E9000108325A
:1005C000C9F80020CDE90401C80F02D009982D21F7
:1005D0000AE0BDF84800810702D509982B2103E005
:1005E000C00705D5099820211FAA1154401C099065
:1005F000DDE9042309991FA8CDE92E2308444BF017
:1006000020016129079015AC0BD01099002902D563
:100610000621109105E001BF4BF02001672901225E
:100620001092DDE9042359004915491C10D11A0321
:100630000ED0ABF1610503211A2D0A9102D20FF6FB
:10064000A43101E00FF6A031032200F0B1FEA8E6CC
:1006500059004915491C0AD11A0308D1ABF16105AB
:1006600003211A2D0A9116D30FF68431ECE7DDE948
:100670000401CDE93001DDE9302323F00047B7F56F
:10068000801F22F000060DD20022002F08BF002E8E
:10069000029203D116E00FF65431D5E702AA00F01A
:1006A000DBFE0FE0DFF8EC0ADFF8EC1A00EB175086
:1006B0000290DDE930234FF0FF301940DFF8DC7A9B
:1006C00010403943CDE904014BF0200061280DD1E1
:1006D000079830210170821CBBF1610F07920CBF9B
:1006E0007821582141700998801C0990DDE90401A6
:1006F00020F0000231F0004308BF002A02D100269A
:10070000002571E14BF02008B8F1610F40F0BE8088
:100710001098002847BF21210391401C0390039F9C
:10072000DDE92E017F1C00220023DDE9044500F0F5
:10073000CBFE02998DF8542038BF85F00045091F83
:10074000002F02910DF155065DDDDFF8541ACDE959
:10075000302140F2FF732E932046294600220023C9
:1007600000F0CAFE4FD24800400D00F11C0215D027
:10077000002A13DD2E9B9A420ADBDDE9300121F0CD
:10078000004205F000400243DDE93001114611E06E
:100790006FF31E5141EA025120460BE024F00000A5
:1007A00035F0004108BF00280FBF29461C2229460A
:1007B00000F0BAFE04460D4600F054FFFF1F002F64
:1007C000804609DD00F06CFF02460B4620462946B4
:1007D00000F078FF04460D46F01D0721B8F1000F28
:1007E0000CDD491E5EBF08F00F0200F8012D4FEA34
:1007F0002818F3D502E0002200F8012D491EFAD591
:10080000C61D002FA8DC0DF15500361A039886424C
:10081000D8BF304600280DF1550430D4B04206DA76
:100820000DF155010A5C082AA8BF0F2100DA00214A
:10083000024615AB134400E0401E13F80159521E46
:100840008D42F9D00F2904D10DF155018B5C5B1C51
:100850008B54002A04D50299091D15AC401C029145
:10086000411E0CD46218ABF13A0613783033DDB276
:100870003A2DA8BFF318491E02F80139F5D5109991
:10088000002940F1AF80421E1092ABE00299DFF8E0
:10089000142947F29750414391FBF2F2DDE92E45CE
:1008A000029225F00045D2F1070204DD20462946D8
:1008B00000F04CFC0BE052420020DFF8EC1800F096
:1008C00045FC02460B462046294600F06DFF0446D3
:1008D000B8F1660F109806BF029F0A3706273F1827
:1008E000142FC8BF142730208DF854000D46002067
:1008F000DFF8B818CDE92E010DF15506002F33DDD4
:100900002046294601F074F801460A4606F108031C
:1009100004200A26B2FBF6F606EB860EA2EB4E0288
:10092000303203F8012C0A22B6FBF2F202EB820EFF
:10093000A6EB4E063036401E03F8026DE9D1083FA3
:10094000002F03F10806D9DD084601F065F80246DC
:100950000B462046294600F0B5FEDDE92E2301F0C6
:1009600069F804460D46CBE70DF15500361A0DF136
:10097000550404E00298401E761E0290641C207804
:100980003028F7D0B8F1660F02D10299491C04E073
:10099000B8F1650F0CBF012100211098081886429C
:1009A000B8BF701E00281DD4B04204DA215C34297F
:1009B000C8BF392100DC30210246631E9D1800E0CB
:1009C000401E15F80169521E8E42F9D0392902D114
:1009D000A15C491CA154002A04D50299491C1C465B
:1009E000401C02910646029D00F05AFC406A0778BE
:1009F000DDF8408030B2002802DC01260FF2F474EA
:100A00004BF02000662808BF6D1C16D0672846D121
:100A100028B210F1040F48DB404546DA9DF8480043
:100A20006D1C010703D430B24045B8BF804628B2E0
:100A3000B8EB000848BF4FF000080FFA85FB079895
:100A40000A99BBF1000F00F3B2804A1C0A923023CE
:100A50004354B8F1000F03DC9DF84800010704D5AA
:100A60000A98411C0A9107990F5418EB0B0FB8BF55
:100A7000C8F100052DB268420D90A84432B29045ED
:100A8000B8BF4646079B0A9836B20B9632462146B7
:100A9000184400F08DFCA8EB06000E90CBE0BBF1F3
:100AA000610F17D14FF0700B19E030B2404504DAF6
:100AB0009DF848100A0758BF8046B8F1010848BFA2
:100AC0004FF00008BBF1670F14BF4FF0450B4FF01C
:100AD000650B04E0BBF1410F08BF4FF0500B0A98C3
:100AE000411C0A91B8F1000F079914F8012B0A5420
:100AF00003DC9DF8480001071AD50A98411C0A91A9
:100B0000B8F1000F07990F5412DD761E30B2804500
:100B100007980A9BB8BF464632B22146184400F0F7
:100B200047FC0A9936B271180A91A8EB06000D909D
:100B300007980A9908442AB2002A80F800B003D422
:100B40002B224270811C04E02D2141701546811C2E
:100B50006D4200202EAA0A2409E02B4693FBF4F5EF
:100B600005EB8506A3EB460302F8013B401C2DB2C2
:100B7000002DF2DC012806DC4BF02002652A04BFC0
:100B8000302201F8012B00282EAA08D1302001F8CC
:100B9000010B06E0401E135C303301F8013B0028D6
:100BA000F8DC079A0A981044091A0B9143E00844AC
:100BB00031B22AB2914219DA32B2214600F0F8FB82
:100BC0000A9936B27118ABEB0606B8F1000F0A911C
:100BD0000D9603DC9DF84800020704D5079847549A
:100BE0000B99491C0B91CDF8388024E0214600F088
:100BF000DFFB0A98761B5844B8F1000F0A9003DC1B
:100C00009DF848100A0703D5411C0A9107990F5413
:100C100030B2804507980A9BB8BF464632B204EB13
:100C20000B01184400F0C4FB0A9836B230180A9041
:100C3000A8EB06000D909DF8480000F01400102865
:100C40007FF4AFAB099A0A990D988A180B9982180C
:100C50000E988A18821811988242BFF6A2AB821AA7
:100C600017E49DF84A00622808D068280ED06A2848
:100C700014D06C281FD0712810D01CE0D9F80010B7
:100C800051F8040BC9F80010C0B21AE0D9F80010EE
:100C900051F8040BC9F8001080B212E0D9F8002016
:100CA000D21D22F00702C9F80020D2E90001083263
:100CB000C9F8002006E0D9F8001051F8040BC9F873
:100CC00000100021CDE904019DF8480001075AD524
:100CD000DDE90423002B08BF002A54D04BF020008C
:100CE000782850D109981FA930220A54401C431C6F
:100CF000099301F800B046E09DF84A00622808D048
:100D000068280ED06A2814D06C281FD0712810D003
:100D10001CE0D9F8001051F8040BC9F8001040B2DB
:100D20001AE0D9F8001051F8040BC9F8001000B20D
:100D300012E0D9F80020D21D22F00702C9F80020E5
:100D4000D2E900010832C9F8002006E0D9F8001005
:100D500051F8040BC9F80010C117CDE904010029AE
:100D600002D509982D210AE0BDF84800810702D577
:100D700009982B2103E0C00705D5099820211FAA57
:100D80001154401C09901FA809990144079104A817
:100D9000594600F056F9FFF704BB9DF84A006C284D
:100DA0000BD001210991D9F8000050F8041BC9F8B3
:100DB00000008DF87C10FFF7F4BAD9F8000050F865
:100DC000041BC9F8000015914FF0FF32109200216A
:100DD000169115AAFFF709BB25210122BBF1000FCF
:100DE0008DF87C1009923FF4DCAA8DF87DB00221C9
:100DF000FFF7AABACBCCCC0C686A6C747A4C0000B2
:100E00007072696E74665F733A2062616420256C4B
:100E10007320617267756D656E7400007072696E23
:100E200074665F733A206261642025732061726783
:100E3000756D656E74000000000000000000000089
:100E40007072696E74665F733A20256E20646973F0
:100E5000616C6C6F776564007072696E74663A20BD
:100E600062616420256E20617267756D656E740025
:100E700033B0BDE8F08F2DE9FC410F4606469046A1
:100E80007A6B7869396ABC6A121AB869521A796A37
:100E9000121AF869521A121A97F83800141B4107EF
:100EA0000FD42020002C8DF800000ADD25460123F8
:100EB0006A463946304600F07DF900285DD16D1E46
:100EC000F5D17B6942463946304600F073F9002877
:100ED00053D130208DF800003D6A002D09DD01233B
:100EE0006A463946304600F065F9002845D16D1E46
:100EF000F5D1BB69FA683946304600F05BF9002845
:100F00003BD130208DF800007D6A002D08DD0123E3
:100F10006A463946304600F04DF970BB6D1EF6D179
:100F2000F868B969FB6942183946304600F042F961
:100F300018BB30208DF80000BD6A002D08DD0123AC
:100F40006A463946304600F035F9B0B96D1EF6D123
:100F500097F8380041070DD52020002C8DF80000AF
:100F600008DD01236A463946304600F023F920B9EE
:100F7000641EF6D10020BDE8F6814FF0FF30BDE8D9
:100F8000F6812DE9F8470D46A3B02F6B002F82465E
:100F9000904648BF6FF0004700F01DFE696B401897
:100FA00001AA0021C2E90011812828BF4FF0FF30BB
:100FB00044D289461EE0A74230DB686920188128A8
:100FC0000BD30021696303AA29465046FFF753FF5C
:100FD0005FEA000922D40020686103AB6E692246F3
:100FE0006946981900F0E4F9A6196E6158F8040BE7
:100FF000A0B13F1B002F11DDD8F8001001AA6846F0
:1010000000F04CF90446002C05D4D8F80000002864
:10101000D1D1641ECFD54FF0FF390EE0B9F1000FEA
:10102000504604D103AA2946FFF725FF8146B9F1AE
:10103000000F02D1002068616863484624B0BDE813
:10104000F0872DE9FC4307466F293E6908BF082455
:1010500005D041F02000782814BF0A2410243C2534
:10106000D7E90023642918BF69299046994605D11C
:10107000002B03D5D8F1000869EB4909B9F1000F3D
:1010800008BFB8F1000F0CD1386B50B9082C39D11A
:1010900097F83800010735D530203B2586F83B000E
:1010A00030E08DF80010404649462246E31700F034
:1010B00097FD3032D0B26D1E3A28019504DB9DF8C1
:1010C0000000A0F151018A18725540464946224657
:1010D000E31700F085FD80465FEA010908BFB8F11B
:1010E000000F03D0F86871198842DCD3082C09D1AD
:1010F00097F83800010705D5705D302802D06D1EC5
:1011000030207055C5F13C02BA617119F960386B35
:10111000824208DA821A3A624FF6EF70398F014044
:101120003987BDE8F38300280ED597F8380000F022
:101130001400102808D17B6B7969386A5B1A1B1A76
:101140009A1A002AC8BF3A62BDE8F3832DE9D0435A
:1011500006460F4614464FF00008DFF8549012E0A0
:10116000E00707D542464B463046394600F062FC60
:1011700006460F464046494642464B4600F05AFC5A
:10118000641080468946002CEAD130463946BDE8D5
:10119000D083000002FCFFFFFFFF0F800000E03F54
:1011A0000000F07FA08601000000F03F84D7974147
:1011B00000002440F8B505460E4617461C460020A0
:1011C0005CB117F8011BB068A847B06030B1F06A95
:1011D000401CF0620020641EF3D1F2BD4FF0FF30DE
:1011E000F2BD00006E616E004E414E00696E6600F9
:1011F000494E4600300030B4002513E050F8042B6F
:10120000D30744BFA9F101039A18091F042942F822
:10121000045BFAD213468C0744BF15809B1CC90798
:1012200048BF1D7050F8041B0029E7D130BC70473F
:101230001C48704770B45368D41801E05B1C491E09
:10124000042B08DA00291FBF057804F8015B10F8A9
:10125000016B002EF2D1536070BC704738B5144654
:101260001D4661B1FFF7E6FF61686A6B2046904753
:101270006FF00102811A02D0491E01D001E003E0A3
:1012800005E00021616032BD6FF0010032BD4FF01A
:10129000FF3032BDDA6B1047024BDFE7014BF9E755
:1012A000014870475800002020000020C9B2027891
:1012B0008A421AB11CBF10F8012FF9E718BF0020AD
:1012C0007047B1F5807F02D34FF0FF307047017057
:1012D000012070470078401E8041C043C00F704716
:1012E00080B500B906A005490B681BB12222002178
:1012F000984701E000F08CFD222002BD382F00202D
:10130000636F6E73747261696E742068616E646C71
:1013100065723A20626164206D6573736167650070
:1013200000F10103810704D010F8011B820781B18D
:10133000FAD10268A2F10131914311F0803104BF6A
:1013400050F8042FF6E709BAB1FA81F100EBD100A9
:10135000401CC01A70472E00C9B2830706D0521E27
:1013600022D310F8013B9942F7D11FE0083A13D37A
:1013700002F1040241EA012141EA014150F8043B33
:10138000121F21BF4B40A3F1013C2CEA030C1CF0BF
:10139000803FF3D0C9B2001F083210F8013B521E43
:1013A00028BF91EA030FF8D818BF0120401E7047EC
:1013B00062B38B0708D0521E11F8013B00F8013BC5
:1013C00000F024808B07F6D1830740F0208000BF17
:1013D000103A07D330B4B1E83810103AA0E838100A
:1013E000F9D230BC530724BFB1E80810A0E80810B8
:1013F00044BF51F8043B40F8043BD20724BF31F806
:10140000022B20F8022B44BF0B7803707047121F89
:1014100017D35B0009D151F8043B20F8023B1B0CA9
:10142000121F20F8023BF6D20BE051F8043B00F803
:10143000013B1B0A20F8023B1B0C121F00F8013B6A
:10144000F3D238BF121D521E24BF11F8013B00F821
:10145000013BF8D87047430010B5144600F002F87D
:10146000226010BDC1F30A5343B14A0012F5001FB8
:1014700028D2A3F2FE32A1EB0251704750EA410C90
:1014800020D001F0004C31EA0C01B1FA81F204BF26
:10149000B0FA80F3D2180B3AB2F120032CBF00FA55
:1014A00003F1914041EA0C013EBFC2F1200C20FA49
:1014B0000CF319439040524240F2FD33D21A01EB33
:1014C00003517047002270474FF4001C1CEB410F82
:1014D00094BF1CEB430F09E041EA030C50EA4C0CAB
:1014E00052EA0C0C03D2994208BF9042704714BFD5
:1014F0008B428242704700004FF4001C1CEB410FEE
:1015000094BF1CEB430F09E041EA030C50EA4C0C7A
:1015100052EA0C0C03D28B4208BF8242704714BFC0
:101520009942904270470000124254D440F2FF7C2E
:101530001CEA11530FD0634531D09B1863453CBF63
:1015400001EB0251704701F0004141EA0C510020CB
:10155000AFF30080704750EA410320D001F0004C07
:1015600091EA0C011CD0B1FA81F30B3B9A420DD9E0
:10157000D21A994051EA0C01C3F1200C20FA0CFC5C
:1015800061449840531C40F2FF7CD7E7914041EA08
:101590000C01C2F1200C20FA0CF319439040704763
:1015A000B0FA80F31533202BE0D3202AEED3203A73
:1015B000203B9A4209D9D21A00FA03F141EA0C0100
:1015C0000020531C40F2FF7CB8E700FA02F141EA28
:1015D0000C0100207047524240F2FF7C1CEA11537C
:1015E0000DD06345DBD0B2EB030C3CBFA1EB025145
:1015F00070470CF1010221EA035141F4801150EAD5
:10160000410CCCD001F0004C352A27DC30B481EA03
:101610000C01B2F1200309DAC2F12003044601FAF9
:1016200003F5D0402843D1409C400CE0C3F1200298
:10163000450020FA03F418BF44F0010421FA03F036
:1016400091400C43002174F1004550F1000051EB32
:101650000C01244230BC7FF47BAF70476146002010
:1016600076E70000C1F30A5340F2FE329B1A14DD04
:10167000D3F120034FEAE17208DDC90241EA50517B
:1016800041F00040D84080185040704703F2E130EC
:1016900010B1D24382F00040704700207047000034
:1016A000C11768B14840401AB0FA80F29040D21C8D
:1016B000C907C2F5846241EA025202EBD02140051B
:1016C0007047000070B44FF0004591EA030F40F1FD
:1016D000A3836B40841A71EB030603D2001BB14154
:1016E000121973414FF4001C1CEB410F34BF7CEB0B
:1016F000430442E00C0DA4EB1356352E4FDC45EAB3
:10170000C323DB0A45EAC121C912B6F120050DDD6C
:1017100063FA05F6EB4086EA0305124218BF45F06E
:101720000105C01851F100010CD213E062FA06F570
:10173000F2405540F3415A40B340F3405A408018BC
:10174000594107D349085FEA30005FEA350528BFF1
:1017500045F0010501F58011420875F1004250F194
:10176000000041EB04514E0016F5001F70BC38BF5D
:1017700070470020090D090570471CEB410F10D27E
:1017800052EA43060BD0BCEB410F05D80C0DAB431E
:10179000661E342EB6DD02E0AB438018594170BCA2
:1017A000704770BC70470000F0B540F2FF7581EAE9
:1017B000030C0CF0004C15EA11541DBF15EA135729
:1017C000AC42AF42E5E0BC41C1F31301C3F31303E4
:1017D000801A994143F4801304D2641E40004941A9
:1017E00080185941C90241EA5051B1FBF3F603FB9D
:1017F0001611A2FB0675D7EBC020A94102D2761EB6
:1018000080185941C90241EA5051B1FBF3FE03FB74
:101810001E11A2FB0E75D7EBC020A94103D2AEF179
:10182000010E80185941890241EA9051760546EA35
:101830008E2EB1FBF3F603FB1611A2FB0675D7EB58
:101840008020A94102D2761E80185941C90241EA7E
:1018500050514EEA060EB1FBF3F603FB1611A2FB44
:101860000675D7EBC020A94102D2761E80185941D7
:10187000C90241EA5051B1FBF3F703FB1711A2FB78
:101880000735D3EBC020A94167F100070CBF004228
:1018900047F0010766F3D5274FEA1E31B80814F563
:1018A000806412DDBD0775F1004250EB0E5051EB24
:1018B000045111F5801F5CBF41EA0C01F0BD4CF0F2
:1018C0007F6141F0E0410020F0BDBD076D0840EAB6
:1018D0000E5041F48011D4F10104B4F120060ADA6B
:1018E000C4F120060200E04001FA06F3E14018438B
:1018F000B24015430EE0342C13DCC6F1200445EA57
:1019000040056D0820FA06F2154321FA06F0A140C1
:101910000D43002175F1004250F1000051EB0C0124
:10192000F0BD00205FEA0C01F0BDCFB992185B4119
:10193000B3FA83F704BFB2FA82F6BF190B3FB7F1CF
:1019400020062FBF02FA06F3BB40C7F1200622FA99
:1019500006F638BF3343BA401CB1E419641E33E7BE
:101960007F4231F00041B1FA81F404BFB0FA80F651
:10197000A4190B3CB4F120062FBF00FA06F1A140D8
:10198000C4F1200620FA06F638BF3143A0403C1BC4
:101990001AE7AC421ABF05EA1357AF4212E050EA09
:1019A00041061CBF52EA4306BFE750EA41073046F2
:1019B00061461CBF41EA0551F0BD52EA430C08BF25
:1019C000C143F0BD00204FF4001616EB410F98BF45
:1019D00016EB430F08BF16EB410F24BFC14305E0D0
:1019E00016EB430F0CBF61464CEA0551F0BD0000F9
:1019F000400D491840EA81200CD2490DA1F58061C3
:101A0000491C40F0004005DBD1F11F0154BFC84024
:101A1000C017704700207047014648B1B0FA80F106
:101A20008840C91CC1F58461090501EBD02140053E
:101A300070470000B0B581EA030C0CF0004C40F296
:101A4000FF7515EA11541DBF15EA1357AC42AF429A
:101A500039E0E41923EA455343F48013C90241F005
:101A6000004141EA505EC7021100A7FB02020028B4
:101A70004FF00000EEFB01204FF00001E3FB0721D7
:101A800018BF42F00102401800214941E3FB0E015A
:101A9000A4F580640F0302D252004041494154F141
:101AA00001046CDD470872F1004250F1000051EB77
:101AB0000451A1F580115CBF41EA0C01B0BD4CEAB4
:101AC00005510020B0BD05EA1357AC4214BFAF4228
:101AD00041E050EA410E1CBF52EA430E02E061466B
:101AE0000020B0BD24423C441BD15FEA070EF6D073
:101AF000090302BF01460020AEF1140EB1FA81F7CE
:101B0000AEEB070401FA07FE0C37C7F1200100FA1B
:101B100007F7C8404EEA000E23EA455343F480130A
:101B2000A2E733F00043B3FA83F704BFB2FA82FEB0
:101B300077440B3FE41BB7F1200E2FBF02FA0EF3E0
:101B4000BB40C7F1200E22FA0EFE38BF43EA0E0357
:101B5000BA40641C82E750EA410E14BF52EA430EB9
:101B60006FF000014FF4001717EB430F8ABF1946BF
:101B700017EB410FB5E74CEA05510020B0BDD4F199
:101B80000104B4F120070FDAC4F12007520828BF7E
:101B900042F0010210FA07F501FA07F7E1BF2A4304
:101BA000E0403843E1400FE0352C98DCC7F12004D9
:101BB00052EA400220FA07F218BF42F0010231FA5D
:101BC00007F0A1400A43002172F1004250F10000E9
:101BD00051EB0C01B0BD80B5FFF72AFB006C02BDD4
:101BE000BBBBE1B1B2F5803F80F07E80022A1ED9F6
:101BF0008C46B1FBF2F102FB11C31B0443EA104314
:101C0000B3FBF2FC02FB1C3380B240EA0343B3FB9C
:101C1000F2F002FB103240EA0C4000237047022A27
:101C200005D98446B0FBF2F002FB10C270474AB1FE
:101C300005D100F0010249085FEA30007047002238
:101C40000023704700F09EB90B0002000021002025
:101C50007047904271EB030CF6D3B3F5803F2FD25F
:101C6000F0B5B3FA83F7B1FA81F4A7F10F0E3D1B7B
:101C70005340CEF1200602FA0EF2F3415340B5F183
:101C80000F0746D80F3C2C444140C4F12006A04029
:101C9000F1414140B1FBF3F603FB1611A2FB0645EF
:101CA000001BA94102D2761E8018594180EA010228
:101CB00021FA0EF362FA0EF200215A403046F0BDCE
:101CC00030B4B1FBF3FC03FB1C11A2FB0C45001B61
:101CD000A94103D2ACF1010C8018594130BC024635
:101CE0000B46604600217047B2F1807F65D3F0B5A6
:101CF000B2FA82F7B1FA81F4C7F10F063D1B22FA5E
:101D000006F307F1110EF24120355A40B5F10F07E5
:101D1000B8D94140C4F12006A040F1414140B1FB97
:101D2000F3FC03FB1C11A2FB0C45001BA94103D2D1
:101D3000BCF1010C801859410F2F12D30F3FC9037A
:101D400041EA5041B1FBF3F603FB1611A2FB064535
:101D5000D4EBC030A94102D2761E8018594146EA20
:101D6000CC3C07B34140C7F12006B840F1414140A7
:101D7000B1FBF3F603FB1611A2FB0645001BA941BC
:101D800002D2761E8018594180EA010221FA0EF330
:101D9000C7F1200462FA0EF20CFA07F05A402CFA4E
:101DA00004F13043F0BD80EA010221FA0EF3002174
:101DB00062FA0EF260465A40F0BD8C46B1FBF2F179
:101DC00002FB11C31B0243EA1063B3FBF2FC02FBEC
:101DD0001C331B024CEA002043EA1063B3FBF2FC05
:101DE00002FB1C331B024CEA002043EA1063B3FBE6
:101DF000F2FC02FB1C331B024CEA002043EA106396
:101E0000B3FBF2FC02FB1C324CEA002000237047BB
:101E1000012000F0B9B80000841A71EB030604D267
:101E20006E40001BB141121973414FF4001C1CEBB2
:101E3000410F34BF7CEB430683E00C0DA4EB13563B
:101E4000362E00F37C80012E45EAC32341DC43EAB1
:101E5000525312BFD20292025B08240545EAC12107
:101E600041EA5051D2EBC020994125D407D1B0FAB4
:101E700080F610FA06F162D00020203608E0B1FAB0
:101E800081F6B140C6F1200220FA02F21143B040BF
:101E90004FEAF474B4EB465434F001064FEA74048C
:101EA0000AD8D6F50016760D04F00044F04061FA29
:101EB00006F25040F1404840C00A40EA415021F04B
:101EC000004128BF5FEA500550F1000044EBD121EA
:101ED00035E0DB0A45EAC121C90AB6F120050EDD6D
:101EE00042EA0242120CC5F1200603FA06F6EB4064
:101EF00042EA06056D42984161F100010DE062FA87
:101F000006F5F240554063FA06FC82EA0C02F34003
:101F10005A406D42904161EB030111F4801F05D1DD
:101F2000641E620502D06D004041494121F48011D8
:101F3000430875F1004350F1000041EB045170BCBF
:101F400070471CEB410F15D223F0004352EA4306C1
:101F50000BD04FEA4C0CBCEB410F04D80C0D661EA5
:101F6000342EB7DDEBE7801A994150EA410608BFED
:101F70000021E4E708BF1CEB430F28BF6FF000010E
:101F8000DDE700007047000080B5AFF30080024A33
:101F900011001820ABBEFBE7260002002DE9F14F2F
:101FA00084B00E0017009846380080B2800000F020
:101FB000B1FE0500002D15D0642000F0ABFE04003A
:101FC000002C0BD05FF064095FF0000AA346524674
:101FD0004946584600F0ECFF256304E0280000F075
:101FE0002FFF00E00024002C12D000200390029468
:101FF0000F9801900E98009043463A0092B231003B
:10200000049800F00AF8200000F087F8012001E0B1
:102010005FF0FF3005B0BDE8F08F2DE9F94F81B0DA
:102020000C0016000C9F0D9DDDF83880B00000906C
:102030005FF0A50BD8F830A05A460099504600F042
:10204000B7FFD8F8300000EB8600B0F1040A5FEA71
:10205000DA0A5FEACA0A1AF0070000280FD05020F7
:1020600080F31188BFF34F8FBFF36F8F40F25D3263
:10207000DFF83814DFF8500400F0CEFFFEE7002C44
:1020800014D000208146B9F1140F0CD214F80900C5
:1020900008EB090181F8340014F80900002802D087
:1020A00019F10109EFE7002088F847001F2F0FD32F
:1020B000502080F31188BFF34F8FBFF36F8F40F232
:1020C0009232DFF8E813DFF8000400F0A5FFFEE726
:1020D0001F2F01D31E200700C8F82C70C8F85070BD
:1020E00018F1040000F0BBFF18F1180000F0B7FF72
:1020F000C8F81080D7F11F00C8F81800C8F824806D
:10210000029A0199504600F0E9FFC8F80000002D3E
:1021100001D0C5F80080BDE8F78F70B5040001F06C
:1021200068F8DFF88C130868401C0860DFF88453F7
:102130002868002806D12C60086801280DD100F01D
:1021400061FC0AE0DFF870030068002805D1E06A4E
:102150002968C96A884200D32C60DFF860030168EF
:10216000491C01600068A064DFF854130A68012369
:10217000E06A83401A430A601420DFF84813E26AD9
:1021800042430A445668A660B268E260221DB36802
:102190005A60221DB260E26A42430A446261E26A06
:1021A0004243E36A00FB03F00858401C885001F0EA
:1021B00041F8DFF80403006800280DD02868C06AE1
:1021C000E16A884208D25FF08050DFF80C130860A3
:1021D000BFF34F8FBFF36F8F70BD70B5040001F078
:1021E00008F8002C03D1DFF8CC02056800E02500D8
:1021F000281D00F05EFF00280FD1DFF8C812EA6A40
:10220000142042438858002807D1DFF8B4120A6826
:102210000123E86A83409A430A60A86A002803D031
:1022200015F1180000F045FFDFF890020168491C25
:102230000160DFF88062306885420AD1291DDFF82D
:102240008C0200F00FFFDFF888020168491C016072
:1022500006E0DFF85C020168491E016000F029FC1D
:1022600000F0E8FF3068854202D0280000F018FC3A
:10227000DFF844020068002820D0306885421DD174
:10228000DFF85002006800280FD0502080F311883A
:10229000BFF34F8FBFF36F8F40F2AF42DFF80C12E6
:1022A000DFF8240200F0B8FEFEE75FF08050DFF8B0
:1022B00028120860BFF34F8FBFF36F8F70BD1CB53E
:1022C000DFF8240601900020009000238022DFF830
:1022D0001C16DFF81C06FFF761FE0400012C02D17A
:1022E00001F03CF80400012C17D1502080F3118834
:1022F000BFF34F8FBFF36F8F5FF0FF30DFF808162B
:10230000086001206C4908600020DFF8D0110860E7
:1023100001F00EFB00F00DFF10E014F1010F0DD1E4
:10232000502080F31188BFF34F8FBFF36F8F40F6BB
:1023300012025E49644800F06FFEFEE7DFF85407C2
:10234000006813BDDFF88C010168491C016070470B
:10235000F8B500250026DFF87C41206800280DD163
:10236000502080F31188BFF34F8FBFF36F8F40F67B
:1023700085024E49544800F04FFEFEE700F039FF59
:102380002068401E20602068002840F08280484875
:10239000006800287DD0DFF84C150868002853D06D
:1023A000C868C0680500A86A296AEA699160E96995
:1023B0002A6A5160416815F11802914201D1296AD7
:1023C00041600021A9620168491E01606869E968ED
:1023D000AA689160A968EA68516041682A1D914223
:1023E00001D1E9684160002169610168491E01600D
:1023F00033490A680123E86A83401A430A60314876
:102400001421EA6A4A4302445268AA609368EB6066
:102410002B1D946863602B1D9360EB6A4B43034450
:102420006B61EB6A4B43EC6A01FB04F14158491CB8
:10243000C150E86A1F490968C96A8842ABD30120C4
:10244000DFF89C140860A6E7002D01D000F031FBF6
:10245000DFF848763C68002C0CD000F041F80028EA
:1024600003D00120DFF878140860641E002CF4D13A
:1024700000203860DFF868040068002809D00120D7
:1024800006005FF0805014490860BFF34F8FBFF320
:102490006F8F00F0CFFE3000F2BDDFF84000006823
:1024A0007047DFF85406006870470000B055000818
:1024B000F02E0020E02E0020FC2E00200C2F00200B
:1024C000F82E0020E828002094560008642E0020F2
:1024D000EC2E0020182F002004ED00E0F42E002048
:1024E0002DE9F0410027DFF81C060068002840F0C5
:1024F000BF80DFF808070468641C0460002C24D146
:10250000DFF8FC160868006800280FD0502080F320
:102510001188BFF34F8FBFF36F8F40F6B722DFF8FC
:102520007815DFF8E40500F077FDFEE7D1F80080CC
:10253000DFF8D00602680A60C0F80080DFF8C8063D
:102540000168491C016000F0B4FADFF8BC130868A8
:10255000844279D3DFF8A82610680068002803D1E8
:102560005FF0FF3008606FE01068C068C068050069
:1025700068680600B44201D20E6065E06869EA68E6
:10258000AB689A60AA68EB685A6042682B1D9A4251
:1025900001D1EA68426000226A610268521E02604C
:1025A000A86A002812D0A86A2A6AEB699A60EA69C8
:1025B0002B6A5A60426815F118039A4201D12A6ABF
:1025C00042600022AA620268521E0260DFF83C25C7
:1025D00013685FF0010CE86A1CFA00FC5CEA030374
:1025E0001360DFF818051422EB6A534303445B6859
:1025F000AB60D3F808C0C5F80CC015F1040CD3F8D3
:1026000008E0CEF804C015F1040CC3F808C0D5F8F2
:102610002CC002FB0CFC8444C5F814C0D5F82CC0B7
:1026200002FB0CFCD5F82CE002FB0EF28258521C87
:1026300040F80C20DFF8C0050068C06AEA6A9042E2
:1026400088D20120070085E7DFF8AC050068DFF8D5
:10265000AC14C26A142042438858022801D30120D6
:1026600007009F480068002807D00120070004E009
:10267000DFF828040168491C01603800BDE8F081DA
:1026800010B5DFF880040068002803D001209449C9
:1026900008604CE0002092490860DFF87015DFF810
:1026A000540500680860DFF8682510680B689842D8
:1026B00008D2DFF8440503689C6D086804191068A7
:1026C000241A9C6508681060DFF840040068B0FABE
:1026D00080F4D4F11F041421DFF8202401FB04F05E
:1026E000105800280FD1502080F31188BFF34F8F6E
:1026F000BFF36F8F40F6F632DFF89C13DFF8080463
:1027000000F08AFCFEE701FB04F102EB01004168E6
:1027100049684160416810F10802914202D1416864
:10272000496841604068C068DFF8CC14086010BD9B
:1027300038B504000D00002C0FD1502080F3118813
:10274000BFF34F8FBFF36F8F40F60E42DFF8481391
:10275000DFF8B40300F060FCFEE7DFF89C040068DB
:1027600010F11801200000F089FC0121280000F080
:102770006BFA31BD70B504000E001500002C0FD1AE
:10278000502080F31188BFF34F8FBFF36F8F40F657
:102790004442DFF80413DFF8700300F03DFCFEE76D
:1027A0006068DFF854140A68D06182680B681A62A6
:1027B0000A68183283685A600A68183282600968A9
:1027C0008C622168491C2160002D02D05FF0FF302F
:1027D00006002900300000F037FA70BD70B5050022
:1027E000E868C468002C0FD1502080F31188BFF333
:1027F0004F8FBFF36F8F40F67442DFF89C12DFF803
:10280000080300F009FCFEE7A06A216AE269916012
:10281000E169226A5160416814F11802914201D1C4
:10282000216A41600021A1620168491E0160DFF850
:10283000D4020068002835D16069E168A26891601F
:10284000A168E26851604168221D914201D1E168AE
:102850004160002161610168491E0160DFF8AC122E
:102860000A680123E06A83401A430A60DFF88C0299
:102870001421E26A4A4302445268A2609368E3600A
:10288000231D96687360231D9360E36A4B430344E2
:102890006361E36A4B43E66A01FB06F14158491C58
:1028A000C1500FE00F494868E0618268226214F16C
:1028B000180283685A6014F118028260A1620A68E3
:1028C000521C0A60DFF830030068C06AE16A88427F
:1028D00004D201200121024A116000E0002070BDF5
:1028E000042F0020502E0020142F0020C457000871
:1028F000E1290008DFF8101309680160DFF8FC1215
:102900000968416070470000102F00202DE9F04158
:1029100004000D00002C0ED1502080F31188BFF36D
:102920004F8FBFF36F8F40F6EF425B49DFF8D8015E
:1029300000F072FBFEE7002D0ED1502080F31188CD
:10294000BFF34F8FBFF36F8F4FF44F625249DFF8E1
:10295000B80100F061FBFEE700F04BFCDFF89C02E1
:1029600006686768F71BDFF89012086890F8610046
:10297000002806D00020096881F861005FF0010896
:1029800024E0286810F1010F02D15FF000081DE07B
:10299000DFF8740200682168884207D060688642C8
:1029A00004D35FF00108002028600FE02868874208
:1029B00008D22868C01B28602000FFF79BFF5FF04B
:1029C000000803E0002028605FF0010800F032FCFE
:1029D0004046BDE8F0810120DFF8381208607047FA
:1029E00010B5040000F037F8444800680228F9D315
:1029F0005FF08050DFF834120860BFF34F8FBFF3F1
:102A00006F8FEFE770B500241F2C08D23B481421CC
:102A100001FB04F1084400F013FB641CF4E7DFF849
:102A2000F851280000F00CFBDFF8F061300000F0F6
:102A300007FBDFF8EC0100F003FB314800F000FB7E
:102A4000DFF8E00100F0FCFADFF8B4010560DFF820
:102A5000B401066070BD38B5DFF8CC512868002895
:102A600015D000F0C6FB2648C068C0680400201DD1
:102A700000F01FFB20480168491E01602868401EC5
:102A8000286000F0D7FB200000F00AF8E4E731BD31
:102A9000000000001C000020B0550008002F00209E
:102AA00010B50400206B00F0CBF9200000F0C8F94D
:102AB00010BD534908680068002805D15FF0FF3059
:102AC000DFF87411086005E00868C0680068DFF886
:102AD000681108607047DFF858010068002801D1CC
:102AE000012006E007480068002801D1022000E02C
:102AF0000020704700000000F02E0020E828002091
:102B0000642E0020182F002094560008F82E002074
:102B1000F8B5040025000026002C68D0364800686F
:102B200085420FD0502080F31188BFF34F8FBFF341
:102B30006F8F41F24802DFF80811DFF8080100F05A
:102B40006BFAFEE7686D00280FD1502080F31188E2
:102B5000BFF34F8FBFF36F8F41F24902DFF8E010F0
:102B6000DFF8E00000F058FAFEE7686D401E686587
:102B7000E86A296D88423AD0686D002837D1281D4F
:102B800000F097FA002807D1DFF8B0100A68012397
:102B9000E86A83409A430A60286DE862E86AD0F1E7
:102BA0001F00A861DFF894100A680123E86A8340D7
:102BB0001A430A601420DFF87C10EA6A42430A4490
:102BC0005268AA609368EB602B1D97687B602B1D91
:102BD0009360EB6A43430B446B61EB6A4343EF6AD8
:102BE00000FB07F00858401CC850012006003000C8
:102BF000F2BD0000DC2E0020E02E0020F42E00208C
:102C0000E42E0020E82E0020082F0020202F002096
:102C10001C2F0020042F0020282E00203C2E0020F6
:102C2000502E0020782E0020EC2E002004ED00E035
:102C3000FC2E0020E8280020102F0020F82E002075
:102C4000B0550008945600082DE9F04105000C002D
:102C50002B480768DFF8A0800020D8F8001081F822
:102C60006100D8F80000001D00F023FA002808D108
:102C7000D8F8000021490A680123C06A83409A43BA
:102C80000A6015F1010F1AD1002C18D01D484168B7
:102C9000D8F8002091608A68D8F80030DA60D8F857
:102CA0000020121D8B685A60D8F80020121D8A601F
:102CB000D8F8002050610268521C02601AE0E8193E
:102CC0000600D8F800004660BE4207D2D8F80000DF
:102CD000011D0D48006800F0D1F90BE0D8F80000A4
:102CE000011D0A48006800F0C9F9094801688E42D0
:102CF00000D20660BDE8F081E02E0020F82E002012
:102D0000F42E0020782E0020E82E0020E42E002053
:102D1000102F00202DE9F84F04005FF00009FFF7A5
:102D200011FBDFF864A2DAF80000002801D100F0FE
:102D3000CEF8002C10D0DFF854020168083114F0EE
:102D40000700091A0D005FF0FF30401BA04201D3BD
:102D50002C1901E000200400002C5AD4002C58D07B
:102D6000DFF82CB2DBF80000A04252D389480700FC
:102D7000006806007068A04205D23068002802D0C2
:102D800037003668F6E7DAF80000864241D07F481F
:102D9000396802681144894631683960006840002A
:102DA0007168091B88421BD206EB0400804618F0AC
:102DB000070000280CD0502080F31188BFF34F8FFC
:102DC000BFF36F8FDC227449744800F025F9FEE7E9
:102DD0007068001BC8F804007460404600F0A4F856
:102DE000DBF800107068091ACBF800106C48DBF8AB
:102DF00000100268914202D2DBF800100160706896
:102E000050F0004070600020306066480168491C46
:102E10000160FFF79DFA19F0070000280DD050203F
:102E200080F31188BFF34F8FBFF36F8F4FF48E7213
:102E300059495A4800F0F0F8FEE74846BDE8F28FDD
:102E400070B504002600002C40D050480068404275
:102E500006443500686800280DD4502080F311889E
:102E6000BFF34F8FBFF36F8F40F22F124A494B4889
:102E700000F0D2F8FEE7286800280DD0502080F33B
:102E80001188BFF34F8FBFF36F8F4FF49872424991
:102E9000424800F0C1F8FEE76868002816D52868A7
:102EA000002813D1686820F000406860FFF74AFAF4
:102EB00037490A68686882180A60280000F034F808
:102EC00039480168491C0160FFF742FA70BD70B4CF
:102ED0004FF420523548010011F0070F04D0C91DEE
:102EE000C908C900521A82180B002A48036000243E
:102EF0004460D41825480068241AE408E400224DF0
:102F00002C6000202E68706000202E683060180051
:102F1000261A46602D6805604568214E3560456873
:102F20001B4E356070BC704730B41A4A116881423C
:102F300001D21268FAE7140051682144814204D199
:102F400053684168CB18536010000300416819446E
:102F50001568A94210D10C4914680D68AC4208D01C
:102F60004468116849680C19446011680968016077
:102F700004E00968016001E011680160824200D04C
:102F8000106030BC70470000BC2E0020DC570008E9
:102F9000C02E0020B42E0020F4540008285600084B
:102FA000C42E0020C82E0020CC2E0020E8000020D7
:102FB00062F30F2262F31F42401810F0030308D09F
:102FC000C91A1FD3DB0748BF00F8012D28BF20F81E
:102FD000022D130030B414461546103928BF20E9DD
:102FE0003C00FAD8490728BF20E90C0048BF40F848
:102FF000042D890028BF20F8022D48BF00F8012DBC
:1030000030BC7047C91818BF00F8012DCB0728BF86
:1030100000F8012D704700000EB4C0B5024603A8A9
:1030200000210190009101AB0121044878440C304B
:10303000FDF77EF806BC5DF810FB00BFF32600002C
:1030400010F1080141605FF0FF31816010F108016B
:10305000C16010F108010161002101607047002189
:103060000161704742684A6093688B609368596059
:103070009160086103685B1C0360704710B40B68C3
:1030800013F1010F01D1026907E010F10802546841
:103090002468A34201D35268F9E754684C604C6835
:1030A000A1608A60516008610468641C046010BCFF
:1030B0007047010008698A684B689A604A688B68A3
:1030C0005A6042688A4201D18A68426000220A61DD
:1030D0000268521E0260006870470000001F5FF027
:1030E00080730360001F4B085B000360001F0FF23A
:1030F0000D030360143802602038704780B58048A3
:10310000006810F1010F0CD0502080F31188BFF33C
:103110004F8FBFF36F8FCB227A497B48FFF77CFF3D
:10312000FEE7502080F31188BFF34F8FBFF36F8FFE
:10313000FEE71CB5754C20780190FF2020702078A8
:103140008DF800009DF8000010F0500070490870E4
:103150007048072101609DF80010090608D5016834
:10316000491E01609DF8001049008DF80010F2E73B
:103170000168D1F1070104290DD0502080F3118896
:10318000BFF34F8FBFF36F8F4FF482725D495E487C
:10319000FFF742FFFEE70168D1F1070104290DD0D6
:1031A000502080F31188BFF34F8FBFF36F8F40F231
:1031B0000D1254495448FFF72FFFFEE7016809023A
:1031C0000160016811F4E0610160019820705248CB
:1031D000016851F470010160016851F070410160B3
:1031E00000F0A2F800204649086000F0DAFB002059
:1031F00016BD80B5502080F31188BFF34F8FBFF309
:103200006F8F3F490A68521C0A600968012910D172
:103210004249096809060CD080F31188BFF34F8F2B
:10322000BFF36F8F40F2431236493748FFF7F4FE81
:10323000FEE701BD80B53249086800280DD1502055
:1032400080F31188BFF34F8FBFF36F8F4FF4A572D8
:103250002C492D48FFF7E0FEFEE70868401E086095
:103260000868002802D1002080F3118801BD80B5D4
:10327000502080F31188BFF34F8FBFF36F8FFFF79C
:103280002FF9002803D05FF0805024490860002007
:1032900080F3118801BD000038B5EFF30585102DCE
:1032A00017D31F480068405D0400200018490978C2
:1032B000C0B288420DD2502080F31188BFF34F8FE7
:1032C000BFF36F8F40F28A220E490F48FFF7A4FE2A
:1032D000FEE7104800681349096811F4E06188426C
:1032E0000DD2502080F31188BFF34F8FBFF36F8F43
:1032F00040F29B2203490448FFF78EFEFEE731BDF2
:1033000000000020285500084C56000800E400E0AA
:10331000442F0020D02E002020ED00E004ED00E03E
:10332000E05700080CED00E0084800210160002192
:10333000074A1160074909684FF47A72B1FBF2F14C
:10334000491E054A116007210160704710E000E046
:1033500018E000E01800002014E000E01CB5002494
:1033600000F08FF9DFF86003006800280ED0DFF866
:103370005C0301900220009000234FF48072DFF87C
:1033800050130FF29900FEF709FE0400002C0FD134
:10339000502080F31188BFF34F8FBFF36F8F40F23F
:1033A0001912DFF83013DFF83003FFF735FEFEE7C0
:1033B000200016BD70B504000D0016002B00320071
:1033C000A1694919200000F094F8002805D0A069EF
:1033D00045192000216A8847F0E770BD70B50400E8
:1033E0000D00DFF8F8020068C068C668301DFFF7FE
:1033F00060FE96F82800400705D52A00210030001D
:10340000FFF7D8FF05E096F8280010F0FE0086F8D8
:1034100028003000316A884770BD000038B50400CC
:10342000684600F040F805000099280000F003F815
:1034300000F087F8F4E77CB505000C00FEF782FF8A
:10344000684600F043F806000098002828D1002CB8
:1034500008D1AE4206D3FEF77BFF31002800FFF70C
:10346000BDFF1FE0002C08D0DFF874020068006880
:10347000002801D1012400E000242200A91B924869
:10348000006800F0D5FEFEF763FF00280AD15FF068
:10349000805094490860BFF34F8FBFF36F8F01E0F6
:1034A000FEF756FF73BD01008C4A106800680028C3
:1034B00001D1012000E0002008600868002803D145
:1034C0001068C068006800E00020704770B5040014
:1034D000FEF7E3FF0500844E3068854204D200F019
:1034E000BAF80120206001E000202060356028004B
:1034F00070BD2DE9F04104000D0016001F005FF0C3
:10350000000865602461AE420CD3F01BA1698842BB
:1035100002D30120804611E0211D71480068FFF7A9
:10352000ADFD0BE0BE4204D2BD4202D30120804675
:1035300004E0211D69480068FFF7A0FD4046BDE892
:10354000F08138B584B0002269465F48006800F019
:10355000A1FC00287DD000980028F4D40298040033
:103560006069002802D0201DFFF7A3FD03A8FFF724
:10357000ADFF0500009801280DD069D3032830D095
:1035800009D3052855D033D3072804D003D30928FD
:103590002ED026D35CE094F8280050F0010084F887
:1035A0002800019B2A000199A06941182000FFF71B
:1035B000A0FF002814D094F82800400707D52A005F
:1035C0000199A06941182000FFF7F4FE05E094F886
:1035D000280010F0FE0084F828002000216A8847A7
:1035E000B1E794F8280010F0FE0084F82800AAE75C
:1035F00094F8280050F0010084F828000198A06198
:10360000A06900280DD1502080F31188BFF34F8F9F
:10361000BFF36F8F40F25E322E492F48FFF7FCFC5C
:10362000FEE72B002A00A16949192000FFF761FF7E
:1036300089E794F82800800703D42000FFF700FCF6
:1036400005E094F8280010F0FE0084F828007AE7DE
:1036500079E705B030BD10B520490868006800283A
:1036600009D00868C068006804005FF0FF312000DE
:10367000FFF7B4FEF0E70868194A13680B601060A2
:1036800010BD70B5FFF7B5FD0F4C2068002818D1AC
:10369000164D2800FFF7D4FC154E3000FFF7D0FC84
:1036A0000E4805600E48066000220C21052000F03F
:1036B000FEF920602068002803D00E49206800F041
:1036C0007CFDFFF7B7FD70BD2C2F0020302F0020B0
:1036D000CC570008D8550008B8560008242F002001
:1036E000282F002004ED00E0342F00208C2E002035
:1036F000A02E0020D457000810B586B00421002267
:103700006C462000FFF754FC1021002202AC200080
:10371000FFF74EFC0421002201AC2000FFF748FC1B
:103720005E4C200000F0AAFD5D488188ADF80010D5
:1037300003218DF8021018218DF8031069460068E6
:1037400000F0AEFE57488188ADF8001004218DF8D6
:1037500003106946006800F0A3FE5FF4E1300290B8
:103760000020ADF80C000020ADF80E000020ADF8F0
:1037700010000020ADF814000C20ADF8120002A9D2
:10378000200000F0C3FD0121200000F035FE0122E1
:1037900040F22441200000F03EFE012240212000A2
:1037A00000F071FE26208DF804000A208DF8050037
:1037B00002208DF8060001208DF8070001A800F016
:1037C00030FF06B010BD354909880906FBD5010058
:1037D000C9B2354A1180704770B58CB004000D0035
:1037E000042100226E463000FFF7E2FB2C2100226C
:1037F00001AE3000FFF7DCFB2D4E300000F058FF2B
:10380000294801900294002003900495002005901F
:10381000802006900020079000200890002009904A
:103820004FF440500A9000200B9001A9300000F0A6
:10383000B7FF01220221300000F0D0FF5FF400103A
:103840001A490860306840084000306010208DF848
:1038500000000A208DF8010002208DF802000120EE
:103860008DF80300684600F0DCFE0CB070BD80B53A
:10387000FFF742FF4FF490710E48FFF7ADFF5FF482
:1038800000100A4908604FF490700B49086008481E
:10389000016851F00101016001BD000000440040D9
:1038A000B4570008BC57000804440040040002401C
:1038B0006C000240782C00207000024011B581B0ED
:1038C0000C009DF80400FFF77EFF019816BD38B587
:1038D00084B004000D002000ADF808002800ADF809
:1038E00004000020ADF80A000020ADF8060001A990
:1038F0005FF0804000F09AFF012201215FF08040DC
:1039000000F0F5FF1C208DF8000004208DF8010068
:1039100000208DF8020001208DF80300684600F0B9
:1039200080FE01215FF0804000F0D2FF05B030BD85
:1039300080B547210920FFF7CAFF01BDEFF30980D9
:10394000BFF36F8F1D4B1A6820E9F00F106008B5A8
:103950004FF0500080F31188BFF34F8FBFF36F8F8C
:10396000FEF78EFE4FF0000080F31188BDE808409E
:1039700019680868B0E8F00F80F30988BFF36F8F0B
:1039800070470E4B19680868B0E8F00F80F309889B
:10399000BFF36F8F4FF0000080F311884EF00D0ED3
:1039A000704707480068006880F3088862B661B60F
:1039B000BFF34F8FBFF36F8F00DF0000E02E0020BA
:1039C00008ED00E0F8B507000D0001263C00002CD2
:1039D0000FD1502080F31188BFF34F8FBFF36F8F4B
:1039E0004FF49772DFF84816DFF84806FFF714FB2C
:1039F000FEE7002C45D0E06B002842D05FF0FF309E
:103A0000E16BB0FBF1F0216C88423AD3FFF7F1FB98
:103A10002168E26B206C424301EB0200A0600020B1
:103A2000A063206860602168E26B521E206C4243F4
:103A300001EB0200E0605FF0FF3084F8440084F89E
:103A40004500002D12D12069002817D014F1100074
:103A5000FEF7C4FE002811D05FF08050DFF8D815C3
:103A60000860BFF34F8FBFF36F8F07E014F11000B2
:103A7000FFF7E6FA14F12400FFF7E2FAFFF7DAFBAA
:103A800001E000200600002E0FD1502080F31188A5
:103A9000BFF34F8FBFF36F8F40F26312DFF89015C3
:103AA000DFF89005FFF7B8FAFEE73000F2BD2DE928
:103AB000F8430500884691460024002D20D05FF091
:103AC000FF30B0FBF5F040451AD308FB05F010F1CC
:103AD000500F15D208FB05F0060016F15000FFF755
:103AE00019F90400002C1DD020005030070000946C
:103AF0004B46DBB23A004146280000F016F811E0D0
:103B0000002C0FD1502080F31188BFF34F8FBFF3EB
:103B10006F8F4FF4F272DFF81815DFF81805FFF712
:103B20007BFAFEE72000BDE8F2832DE9F0410500B5
:103B30000C0016001F00DDF81880002C02D1C8F818
:103B4000008001E0C8F80060C8F83C50C8F8404068
:103B500001214046FFF736FF88F84C70BDE8F08140
:103B60002DE9F74380460D00994600244646002E75
:103B70000FD1502080F31188BFF34F8FBFF36F8FA9
:103B80004FF45372DFF8A814DFF8A804FFF744FAE3
:103B9000FEE7002D02D1306C002801D1012000E0A9
:103BA0000020C0B200280FD1502080F31188BFF34D
:103BB0004F8FBFF36F8F40F24D32DFF87414DFF890
:103BC0007404FFF729FAFEE7B9F1020F02D1F06B96
:103BD000012801D1012000E00020C0B200280FD14F
:103BE000502080F31188BFF34F8FBFF36F8F40F2E7
:103BF0004E32DFF83C14DFF83C04FFF70DFAFEE725
:103C0000FEF769FF002802D10298002801D10120A7
:103C100000E00020C0B200280FD1502080F31188AE
:103C2000BFF34F8FBFF36F8F40F25132DFF80014B4
:103C3000DFF80004FFF7F0F9FEE7FFF7DAFAB06B00
:103C4000F16B884202D3B9F1020F27D14A4629000D
:103C5000300000F0F5F90700706A00280FD016F167
:103C60002400FEF7BBFD002814D05FF08050DFF881
:103C7000C8130860BFF34F8FBFF36F8F0AE0002FA8
:103C800008D05FF08050DFF8B0130860BFF34F8FAB
:103C9000BFF36F8FFFF7CEFA012052E002980028A1
:103CA00003D1FFF7C7FA00204BE0002C04D168468F
:103CB000FEF720FE01200400FFF7BCFAFEF742FBEE
:103CC000FFF797FA96F9440010F1010F02D1002096
:103CD00086F8440096F9450010F1010F02D100204A
:103CE00086F84500FFF7A6FA02A96846FEF70EFE21
:103CF000002820D1300000F051FA002815D0029998
:103D000016F11000FEF714FD300000F002FAFEF785
:103D10001FFB002891D15FF08050DFF81C13086072
:103D2000BFF34F8FBFF36F8F87E7300000F0F1F9DB
:103D3000FEF70EFB81E7300000F0EBF9FEF708FB21
:103D40000020BDE8FE832DE9FE4F07000C001500A2
:103D500098463E00002E0FD1502080F31188BFF30B
:103D60004F8FBFF36F8F4FF48462DFF8C412DFF818
:103D7000CC02FFF751F9FEE7002C02D1306C00288D
:103D800001D1012000E00020C0B200280FD1502056
:103D900080F31188BFF34F8FBFF36F8F40F2214242
:103DA000DFF88C12DFF89402FFF736F9FEE7B8F17E
:103DB000020F02D1F06B012801D1012000E00020A8
:103DC000C0B200280FD1502080F31188BFF34F8F6D
:103DD000BFF36F8F40F22242DFF85412DFF85C022B
:103DE000FFF71AF9FEE7FFF757FAEFF311895FF0D3
:103DF000500A8AF31188BFF34F8FBFF36F8FB06BF8
:103E0000F16B884202D3B8F1020F3ED196F945001A
:103E10008DF80000B06B019042462100300000F0A8
:103E20000FF99DF9000010F1010F0DD1706A002803
:103E300009D016F12400FEF7D1FC002803D0002D94
:103E400001D0012028601EE0FEF72BFB83469DF980
:103E50000000584517D29DF900007F280ED18AF343
:103E60001188BFF34F8FBFF36F8F40F2AB42DFF883
:103E7000C011DFF8C801FFF7CFF8FEE79DF800009A
:103E8000401C86F84500012000E0002089F31188DD
:103E9000BDE8FE8F2DE9F64182B080460E00002479
:103EA0004746002F0FD1502080F31188BFF34F8F6A
:103EB000BFF36F8F40F26B52DFF87411DFF87401BB
:103EC000FFF7AAF8FEE7002E02D1386C002801D1D6
:103ED000012000E00020C0B200280FD1502080F364
:103EE0001188BFF34F8FBFF36F8F40F26F52DFF82F
:103EF0004011DFF84001FFF78FF8FEE7FEF7EBFD1A
:103F0000002802D10398002801D1012000E0002000
:103F1000C0B200280FD1502080F31188BFF34F8F1B
:103F2000BFF36F8F40F27452DFF80411DFF8040121
:103F3000FFF772F8FEE7FFF75CF9BD6B002D1BD0B1
:103F40003100380000F0CAF8681EB86338690028EC
:103F50000ED017F11000FEF741FC002808D05FF0EA
:103F60008050DFF8D4100860BFF34F8FBFF36F8F1E
:103F7000FFF760F9012057E00398002803D1FFF70D
:103F800059F9002050E0002C04D16846FEF7B2FC3D
:103F900001200400FFF74EF9FEF7D4F9FFF729F9E5
:103FA00097F9440010F1010F02D1002087F8440076
:103FB00097F9450010F1010F02D1002087F8450064
:103FC000FFF738F903A96846FEF7A0FC002820D1C6
:103FD000380000F0D5F8002815D0039917F1240017
:103FE000FEF7A6FB380000F094F8FEF7B1F90028C0
:103FF000A1D15FF08050DFF840100860BFF34F8F11
:10400000BFF36F8F97E7380000F083F8FEF7A0F951
:1040100091E7380000F07DF8FEF79AF9380000F0DB
:10402000AFF8002887D0002004B0BDE8F081000080
:10403000885500087056000804ED00E0705600082E
:104040002DE9F84F06000F0014005FF00008B56B73
:10405000306C002809D1306800283AD1B068FEF7EA
:1040600057FD80460020B06033E0002C14D1D6F814
:104070004090BA46D6F804B04A4651465846FDF735
:1040800097F97068316C084470607068B168884254
:104090001FD3306870601CE0D6F84090BA46D6F85E
:1040A0000CB04A4651465846FDF782F9F068316C2B
:1040B00049420844F060F0683168884204D2B06830
:1040C000316C49420844F060022C02D1002D00D02E
:1040D0006D1E681CB0634046BDE8F28F2DE9F041CB
:1040E00004000D00206C002811D0E068216C084409
:1040F000E060E068A168884201D32068E060266C37
:10410000E768A846320039004046FDF751F9BDE89E
:10411000F081F8B50400FFF76CF894F945502800D9
:1041200040B201280CDB606A002809D014F1240099
:10413000FEF754FB002801D0FEF74DFC6D1EEEE7A4
:104140005FF0FF3684F84560FFF774F8FFF751F829
:1041500094F94470380040B201280CDB2069002833
:1041600009D014F11000FEF739FB002801D0FEF74A
:1041700032FC7F1EEEE784F84460FFF75BF8F1BD88
:1041800038B50400FFF735F8A06B002801D10125F0
:1041900000E00025FFF74EF8280032BD38B50400D6
:1041A000FFF727F8A06BE16B884201D1012500E001
:1041B0000025FFF73FF8280032BDF8B505000E00D6
:1041C0000024002D0DD1502080F31188BFF34F8FB4
:1041D000BFF36F8F40F6D82213491248FEF71CFF39
:1041E000FEE7002E18D000200700082F14D20F4938
:1041F00001EBC7004068854203D101EBC700040012
:104200000AE0002C06D151F83700002802D101EB5A
:10421000C70004007F1CE8E7002C01D02660656021
:10422000F1BD00007056000888550008E82D0020F8
:10423000F8B504000D0016002700FEF7DAFF97F925
:10424000440010F1010F02D1002087F8440097F9D3
:10425000450010F1010F02D1002087F84500FEF75C
:10426000E9FFB86B002805D13200290017F12400BE
:10427000FEF780FA3800FFF74CFFF1BD10B50400DF
:10428000584884420AD101214FF4804000F08CFC50
:1042900000214FF4804000F087FC36E05248844211
:1042A0000AD101215FF4003000F08CFC00215FF4A2
:1042B000003000F087FC28E04C4884420AD10121FC
:1042C0005FF4802000F07EFC00215FF4802000F08D
:1042D00079FC1AE0464884420AD101215FF40020AB
:1042E00000F070FC00215FF4002000F06BFC0CE09B
:1042F0004048844209D101215FF4801000F062FC43
:1043000000215FF4801000F05DFC10BD2DE9F84F36
:1043100086B004000D00002600275FF000085FF063
:1043200000095FF0000AA8890028A346218A4CF6FC
:10433000FF700140E8880143009100982082A18924
:104340004EF6F3100140AA88288902436889024387
:10435000114300910098A081A18A4FF6FF400140CF
:10436000A889014300910098A08201A800F086FB73
:104370001C48834501D1049900E00399A0890004F9
:1043800007D5192000FB01F02A685200B0FBF2F2B9
:1043900006E0192000FB01F02A689200B0FBF2F25F
:1043A0006420B2FBF0F6360133001B09642000FBE9
:1043B0001323A089000408D5D80032306427B0FB4D
:1043C000F7F010F00700064307E0180132306427C9
:1043D000B0FBF7F010F00F000643268107B0BDE8F0
:1043E000F08F0000003801400044004000480040C9
:1043F000004C0040005000400A00D2B2002A04D015
:10440000828952F40052828104E083894DF6FF7262
:104410001340838170472DE9F041002300250027D8
:104420005FF0000E0C0040F66A16A4B2B44280465B
:104430000C00E4B26409E4B20E00B6B216F01F0636
:104440005FF0010C1CFA06FC012C02D118F10C08DB
:1044500006E0022C02D118F1100801E018F114084E
:104460001300DBB2002B06D0D8F800305CEA03035F
:10447000C8F8003005E0D8F8003033EA0C03C8F87B
:104480000030BDE8F0811300DBB2002B03D0838A3B
:104490000B43838202E0838A8B4383827047000050
:1044A000F0B500220023002400250026002791F803
:1044B00003C01CF00F0C91F803E05FEACE6E02D54A
:1044C0008A7852EA0C0C0A7812062AD00268160082
:1044D00000221400082C23D25FF0010E1EFA04F211
:1044E00015000A882A401300AB4217D1A20015001C
:1044F0000F22AA401700BE431CFA05F21643CA78E1
:10450000282A04D11EFA04FEC0F814E006E0CA7896
:10451000482A03D11EFA04FEC0F810E0641CD9E753
:1045200006600A88B2F5807F2EDB42681600002202
:104530001400082C27D25FF0010E14F108021EFAB5
:1045400002F215000A882A401300AB4219D1A200DA
:1045500015000F22AA401700BE431CFA05F21643AD
:10456000CA78282A04D114F108021EFA02F2426124
:10457000CA78482A05D114F108021EFA02FEC0F8D2
:1045800010E0641CD5E74660F0BDF0B400220023C3
:1045900000250027002802D51D4C246801E01D4C91
:1045A0002468C0F3034586B210F4401CBCF5401FDC
:1045B00007D134F07064174A176837F070671760D6
:1045C00011E0C20206D50322AA4013009C4354F016
:1045D000706408E00200520DD2B2120116FA02F223
:1045E000944354F070640A00D2B2002A06D002004C
:1045F000520DD2B2120116FA02F21443002802D56B
:10460000034A146001E0034A1460F0BC70470000E4
:104610001C000140040001401E4901431E4A116074
:104620007047F0B4002200230F24C17800291FD066
:104630001949096811F4E061D1F5E061090AD1F185
:1046400004052B00CC4045789D40867826403543B4
:104650002D012A00114D0678AA550125067816F07D
:104660001F06B5400E4E07787F1146F8275009E027
:104670000121057815F01F05A9400A4D067876112D
:1046800045F82610F0BC7047074A0A400243074B22
:104690001A6070470000FA050CED00E000E400E04D
:1046A00000E100E080E100E080FFFF1F08ED00E096
:1046B0000168490849000160002101600021416052
:1046C000002181600021C1604A49884205D14A49E0
:1046D0000A6852F00F020A6061E04849884205D139
:1046E00045490A6852F0F0020A6058E0444988429D
:1046F00005D141490A6852F470620A604FE04149AD
:10470000884205D13C490A6852F470420A6046E08A
:104710003D49884205D138490A6852F470220A603E
:104720003DE03A49884205D133490A6852F47002A3
:104730000A6034E03649884205D12F490A6852F0B0
:1047400070620A602BE03349884205D132490A6819
:1047500052F00F020A6022E03049884205D12E490A
:104760000A6852F0F0020A6019E02D49884205D12A
:1047700029490A6852F470620A6010E029498842A7
:1047800005D125490A6852F470420A6007E02649BB
:10479000884204D120490A6852F470220A607047A6
:1047A00030B4002304686FF30E148D680A6A154351
:1047B0000A6915434A6915438A691543CA6915434D
:1047C0004A6A15438A6A15432C430460CA684260EA
:1047D0000A6882604A68C26030BC70471300DBB26E
:1047E000002B03D003680B43036002E003688B4394
:1047F0000360704708000240040002401C000240B1
:104800003000024044000240580002406C00024068
:104810008000024008040240040402401C040240DC
:1048200030040240440402405804024010B4002204
:1048300004881D4B98420ED0214A90420BD0B0F113
:10484000804F08D0194A904205D0194A904202D0B0
:10485000184A904204D14FF68F7214404A8814438C
:10486000154A904207D0154A904204D04FF6FF42B5
:104870001440CA88144304808A8882850A88028585
:1048800098420BD00E4A904208D00E4A904205D072
:104890000D4A904202D00D4A904201D10A7A028616
:1048A0000122828210BC7047002C014000040040AD
:1048B00000080040000C00400010004000140040C0
:1048C00000340140004001400044014000480140E4
:1048D0000A00D2B2002A04D0028852F001020280FB
:1048E00004E003884FF6FE72134003807047130004
:1048F000DBB2002B03D083890B43838102E08389E1
:104900008B4383817047F0B402000023002600240B
:10491000178A0F4095890D40380080B2002805D0D5
:10492000280080B2002801D0012000E00020C0B2A1
:10493000F0BC70470A0092B2D24302827047000076
:10494000DFF8E412086850F001000860DFF8DC22AC
:104950001368DFF8DC02034013600B68DFF8D40251
:1049600003400B60086830F480200860106830F461
:10497000FE0010605FF41F00DFF8BC120860704793
:10498000DFF8A4120A6832F480320A600A6832F44E
:1049900080220A600200B2F5803F03D0B2F5802F7A
:1049A00005D009E00A6852F480320A6004E00A681F
:1049B00052F4A0220A60FFE7704738B5002000904B
:1049C00000240025312000F00BF905000098401C60
:1049D000009000984FF6FF71884203D02800C0B2C3
:1049E0000028EFD0312000F0FBF8002801D0012092
:1049F00000E00020C0B232BD30B400238B4D2C68E3
:104A000034F47C1451EA000214432C6030BC70472B
:104A10000100C9B2894A116070470021834B1A68AE
:104A20009208920002431A6070478048006810F0B4
:104A30000C00704700217D4B1A6832F0F0020243EF
:104A40001A6070470021794B1A6832F4E062024321
:104A50001A6070470021754B1A6832F4605252EAAE
:104A6000C0021A60704776490860704700216F4B9A
:104A70001A6832F4404202431A6070472DE9F04F41
:104A800001000022002500200026684FD7F800C052
:104A90001CF00C0C6346002B04D0042B05D0082B13
:104AA00006D023E0684A0A6022E0684A0A601FE0F4
:104AB0003A6812F470123B6813F480331800920CB9
:104AC000921C1500002804D1614A02FB05F20A601D
:104AD0000BE03A68920304D55E4A02FB05F20A60D5
:104AE00003E05A4A02FB05F20A6001E0564A0A60F6
:104AF0003C6814F0F0042409DFF85C9119F804E034
:104B00000A6832FA0EF24A603B6813F4E0631B0A4B
:104B100019F803804A6832FA08F28A603A6812F497
:104B20006052D20A19F80290D1F804A03AFA09FAB0
:104B3000C1F80CA03F6817F44047BF0BDFF81CA179
:104B40001AF807A0D1F80CB0BBFBFAFBC1F810B003
:104B5000BDE8F08F0A00D2B2002A04D0404A1368A0
:104B60000343136003E03E4A1368834313607047B6
:104B70000A00D2B2002A04D03A4A136803431360F1
:104B800003E0384A13688343136070470A00D2B2C7
:104B9000002A04D0344A13680343136003E0324A06
:104BA00013688343136070470A00D2B2002A04D00E
:104BB0002E4A13680343136003E02C4A13688343AF
:104BC000136070470A00D2B2002A04D0284A136842
:104BD0000343136003E0264A13688343136070475E
:104BE00030B401000020002300250A00D2B252098F
:104BF000D2B2012A02D10C48046806E0022A02D18E
:104C00001048046801E01B4804680B00DBB213F095
:104C10001F032000D840C00701D5012000E000207C
:104C2000C0B230BC704700000010024004100240C7
:104C30000000FFF8FFFFF6FE08100240600042424D
:104C4000D80042422010024000127A00001BB70038
:104C500000093D00808D5B0004000020140000204E
:104C600014100240181002401C1002400C100240A8
:104C7000101002402410024078B585B004000421D1
:104C800000226D462800FEF793F91021002201ADA5
:104C90002800FEF78DF9A54D2800FFF7EFFAA4488C
:104CA0008188ADF8001003218DF8021018218DF8CD
:104CB000031069460068FFF7F3FB9E488188ADF852
:104CC000001004218DF8031069460068FFF7E8FB27
:104CD000994EB088ADF8000010208DF803006946A9
:104CE0003068FFF7DDFB95488188ADF80010694614
:104CF0000068FFF7D5FBB088316848610194002057
:104D0000ADF808000020ADF80A000020ADF80C0056
:104D10000020ADF810000C20ADF80E0001A928000D
:104D2000FFF7F4FA01212800FFF766FB012240F2A9
:104D300024412800FFF76FFB012280212800FFF7A4
:104D4000A2FB012240212800FFF79DFB06B070BDA9
:104D500080B525208DF8000008208DF8010008207E
:104D60008DF8020001208DF803006846FFF759FC1A
:104D700001BD4FF460514843401C0100481E00290A
:104D8000FBD17047694909880906FBD50100C9B202
:104D90006B4A1180704770B58CB004000D0004217F
:104DA00000226E463000FEF703F92C21002201AEEE
:104DB0003000FEF7FDF8634E3000FFF779FC6048E5
:104DC000019002941020039004950020059080200B
:104DD00006900020079000200890002009904FF4D2
:104DE00040500A9000200B9001A93000FFF7D8FC3A
:104DF000012202213000FFF7F1FC4FF4005052492C
:104E0000086030684008400030604848008840062C
:104E1000FBD50120FFF7ADFF47488188006841615D
:104E20000E208DF8000008208DF8010002208DF87A
:104E3000020001208DF803006846FFF7F2FB0CB07A
:104E400070BD70B58CB004000D00042100226E46C8
:104E50003000FEF7ADF82C21002201AE3000FEF745
:104E6000A7F83A4E3000FFF723FC35480190029432
:104E700000200390049500200590802006900020DB
:104E8000079000200890002009904FF440500A90AD
:104E900000200B9001A93000FFF782FC01220221C3
:104EA0003000FFF79BFC5FF4003027490860306852
:104EB0004008400030600F208DF8000008208DF879
:104EC000010002208DF8020001208DF803006846E1
:104ED000FFF7A7FB0CB070BD2DE9F04104000E00F8
:104EE0005FF00008144DA888296808610120FFF7C9
:104EF00040FF00273800310080B289B2884206D2D4
:104F0000380080B2205CFFF73DFF7F1CF2E70748C6
:104F100000884006FBD50120FFF72BFFA8882968F1
:104F200048610120FFF725FFBDE8F081003801400E
:104F3000945700089C570008A4570008AC57000875
:104F4000043801404400024004000240580002407E
:104F50007047FEE7FEE7FEE7FEE7704780B50121F8
:104F60005FF08040FFF7CFFC012808D14548016879
:104F7000491C016001215FF08040FFF7DBFC01BDAF
:104F800041480188C90608D55FF400113F4A116005
:104F90003F490A68520852000A6000883D4908806B
:104FA0003D4800883D49088070475FF4003037492C
:104FB00008603B48016849084900016039480068B9
:104FC000D0F5907038490880704710B52F4C4FF4D9
:104FD00000502060354801684908490001603448A4
:104FE00000884006FBD50120FFF7C3FE31488188C9
:104FF000006841615FF4003020604FF490702949EF
:1050000008602748016851F00101016010BD2DE9D9
:10501000F84F274C2088C0062BD51C4D5FF4003676
:105020002E601F4F3868400840003860DFF87880F5
:10503000DFF87090D9F80000D0F59070A8F8000063
:105040000023002241461C480068FEF77CFE4FF416
:10505000927A5FF0000B5A4651464046FDF7A8FF92
:105060002E604FF49070C9F80000386850F00100CD
:10507000386020881149088011480088114908804B
:10508000BDE8F18FDC2E0020004400400400024007
:105090006C0002403C2F0020044400403E2F0020C2
:1050A000580002405C000240542B002044000240A3
:1050B00000380140A4570008D82E0020402F0020BF
:1050C00004380140422F00204FF4C0414843401CA7
:1050D0000100481E0029FBD1704710B5FFF730FCD6
:1050E0005FF48030FFF74CFCFFF767FC0400200002
:1050F000C0B201282BD10020FFF79CFC0020FFF755
:10510000A9FC4FF48060FFF79DFC4FF44040FFF78F
:10511000ADFC0020FFF7A7FC022000F089F810206A
:1051200000F08FF85FF480115FF48030FFF764FCCB
:105130000120FFF76DFC3920FFF752FD0028FAD05F
:105140000220FFF76AFCFFF770FC0828FBD110BDB6
:1051500010B504002100C9B244F20D00FFF708FDAC
:105160002100C9B22C48FFF711FD2100C9B201206E
:10517000FFF7F0FC10BD80B500215FF00060FFF785
:1051800083FA4FF4A060FFF747FA01BD80B5012113
:105190002248FFF7FAF901BD00B585B0FFF79DFF82
:1051A000FFF7E9FF0120FFF7D3FF4FF47A70FFF715
:1051B0008BFF4FF47A70FFF787FF4FF44070FFF7D3
:1051C0002BFAFFF7E3FF6846FFF758FC62B605B01D
:1051D00000BDE0B5FEF70DF8FEF749FB4FF41640B1
:1051E00000F03CF800200190012000900023802274
:1051F0000B490C48FCF7D2FE0020019001200090E2
:105200000023802208490948FCF7C8FE0020FCF76B
:10521000E4FFFEF70FF807BD010802180002300096
:1052200070570008C35200087C5700080953000853
:105230000021DFF824301A6812F0380202431A60A5
:105240007047DFF814100A6832F010020A600A682A
:1052500002430A60704700000020024070B504005D
:1052600000F01DF82000FFF707FDFFF771FD394D35
:105270002E1D29883000FFF78EFD29883000FFF7AA
:10528000E0FD5FF40030344908604FF4907033491A
:1052900008603348016851F00101016070BD80B5BC
:1052A00000224FF492710420FEF701FC2D490860A2
:1052B00000224FF492710420FEF7F9FB2A4908609E
:1052C00001BD2DE9F841C9B004004FF492752900E1
:1052D00000226E463000FDF76BFE2E000027E846E8
:1052E0003A0031004046FDF763FE5FF0FF32694649
:1052F0001C480068FEF7CEFD0128EED1BDF8001075
:1053000001A8FFF7E9FDE8E72DE9F841C9B004007D
:105310004FF49275290000226E463000FDF748FEDA
:105320002E000027E8463A0031004046FDF740FED7
:105330005FF0FF3269460C480068FEF7ABFD0128BC
:10534000EED100235FF0FF32694606480068FEF7A1
:1053500007FCE5E7542B0020040002405C000240FB
:1053600058000240D42E0020D82E002080B53D49A0
:10537000086850F0010008603B4A13683B4803404E
:1053800013600B683A4803400B60086830F48020D3
:105390000860106830F4FE0010605FF41F003549AB
:1053A000086000F001F801BD80B500F001F801BD12
:1053B00082B000200190002000902A49086850F433
:1053C00080300860086810F4003000900198401C9C
:1053D00001900098002804D101984FF6FF72904286
:1053E000F0D10868800302D50120009001E0002080
:1053F00000900098012831D11F48026852F0100235
:1054000002600268920892000260026852F0020292
:10541000026015480268026002680260026852F485
:1054200080620260026832F47C120260026852F408
:10543000A02202600A6852F080720A600A68920133
:10544000FCD50168890889000160016851F00201FA
:105450000160016811F00C010829FAD102B070470F
:105460000000000000100240041002400000FFF89D
:10547000FFFFF6FE0810024000200240F0B4024692
:10548000106895681318506803EB5004C0071CD5CA
:105490004D441AE013F8017B05F8017B491EF9D150
:1054A00098B113F8011BC6F38106032E08BF13F849
:1054B000016B01EB06214942801C294405D011F8FB
:1054C000016B05F8016B401EF9D1A3420ED013F811
:1054D000016B16F0030104BF13F8011BC91C30094E
:1054E0000F28DBD113F8010B0F30D7E7F0BC02F126
:1054F0000C007047453A5C416E7949445C476974D9
:105500005C4D373030305C6B65726E656C5C706F13
:10551000727461626C655C4D656D4D616E675C684F
:105520006561705F342E6300453A5C416E79494491
:105530005C4769745C4D373030305C6B65726E650A
:105540006C5C706F727461626C655C6961725C70D6
:105550006F72742E63000000E0B5FFF71DFE00209F
:105560000190012000900023802205490548FCF7A6
:1055700015FD002801D0FCF7A2FE00200EBD00BFE3
:1055800050570008D3510008453A5C416E794944B0
:105590005C4769745C4D373030305C6B65726E65AA
:1055A0006C5C7372635C71756575652E63000000D9
:1055B000453A5C416E7949445C4769745C4D3730CB
:1055C00030305C6B65726E656C5C7372635C7461C9
:1055D000736B732E63000000453A5C416E79494459
:1055E0005C4769745C4D373030305C6B65726E655A
:1055F0006C5C7372635C74696D6572732E6300001A
:1056000010B5074979441831064C7C44163404E03F
:105610000A68081D114488470146A142F8D110BD0F
:10562000BC000000D80000004173736572742066EE
:1056300061696C6564212046696C653A2025732C8C
:10564000204C696E653A2025640A00004173736539
:105650007274206661696C6564212046696C653AE4
:105660002025732C204C696E653A2025640A0000C1
:10567000417373657274206661696C6564212046AC
:10568000696C653A2025732C204C696E653A20259B
:10569000640A0000417373657274206661696C6509
:1056A00064212046696C653A2025732C204C696E74
:1056B000653A2025640A00004173736572742066A0
:1056C00061696C6564212046696C653A2025732CFC
:1056D000204C696E653A2025640A00001BBBFFFF61
:1056E000602E0000E80000200000000091FDFFFF98
:1056F000D0010000C40000000000002000F00DF800
:10570000002801D0FFF77CFFAFF300800020AFF34B
:105710000080FFF721FF00F002F80120704700F041
:1057200001B8000007463846FCF72EFCFBE738B509
:1057300004460D46284600F005F8A84218BF00248C
:10574000204632BD0149FEF7B9B800BFA0000020D5
:105750005379735F5461736B437265617400000029
:1057600001488047014800476D53000889570008E9
:1057700052533438355F54580000000052533438C7
:10578000355F525800000000AFF30080AFF3008097
:10579000FFF7B4FF000801400002000000080140CC
:1057A000000400000008014000080000000801405B
:1057B0000010000000080140040000000008014043
:1057C0000800000049444C4500000000546D722060
:1057D00053766300546D7251000000000800000011
:1057E000F0E300E0FFF7FEBFFFF7FEBFFFF7FEBFED
:1057F000FFF7FEBFFFF7FEBFFFF7FEBFFFF7FEBFDD
:10580000FFF7FEBFFFF7FEBFFFF7FEBFFFF7FEBFCC
:10581000FFF7FEBFFFF7FEBFFFF7FEBFFFF7FEBFBC
:10582000FFF7FEBFFFF7FEBFFFF7FEBFFFF7FEBFAC
:10583000FFF7FEBFFFF7FEBFFFF7FEBFFFF7FEBF9C
:10584000FFF7FEBFFFF7FEBFFFF7FEBFFFF7FEBF8C
:10585000FFF7FEBFFFF7FEBFFFF7FEBFFFF7FEBF7C
:10586000FFF7FEBFFFF7FEBFFFF7FEBFFFF7FEBF6C
:10587000FFF7FEBFFFF7FEBFFFF7FEBFFFF7FEBF5C
:10588000FFF7FEBFFFF7FEBFFFF7FEBFFFF7FEBF4C
:10589000FFF7FEBFFFF7FEBFFFF7FEBFFFF7FEBF3C
:1058A000FFF7FEBFFFF7FEBFFFF7FEBFFFF7FEBF2C
:1058B000FFF7FEBFFFF7FEBFFFF7FEBFFFF7FEBF1C
:1058C00012AA0112000120020102030404100B06B7
:1058D0000708090204060800A24A041E19F002077C
:1058E000F61400080452FF01E356131410010000DF
:1058F000560C120140322003F115012002D512008E
:10590000082C43C3123C2101100702040101982D09
:105910000020E804529804211B610812E460F2128E
:02592000D06451
:04000005080057890F
:00000001FF
