:020000040800F2
:10000000B03D0020DD110008FD060008FF060008D5
:1000100001070008030700080507000800000000AA
:10002000000000000000000000000000CBA300085A
:10003000070700080000000085A300087F9900085A
:100040001D130008211300082513000829130008B8
:100050002D13000831130008351300083913000868
:100060003D13000841130008451300084913000818
:100070004D130008511300080F080008EF0700088F
:1000800055130008591300085D1300086113000898
:1000900065130008691300086D1300087113000848
:1000A00075130008791300087D13000881130008F8
:1000B0000907000885130008891300088D1300083C
:1000C0009113000895130008991300089D13000868
:1000D000A1130008530800086707000891070008EB
:1000E000A5130008A9130008AD130008B1130008F8
:1000F000B5130008B9130008BD130008C1130008A8
:10010000C5130008C9130008CD130008D113000857
:10011000D5130008D9130008DD130008E113000807
:10012000E5130008E9130008ED130008F1130008B7
:1001300030B4002513E050F8042BD30744BFA9F1D5
:1001400001039A18091F042942F8045BFAD21346E6
:100150008C0744BF15809B1CC90748BF1D7050F811
:10016000041B0029E7D130BC704700001C487047D1
:1001700070B45368D41801E05B1C491E042B08DAE4
:1001800000291FBF057804F8015B10F8016B002EF1
:10019000F2D1536070BC704738B514461D4661B14A
:1001A000FFF7E6FF61686A6B204690476FF0010237
:1001B000811A02D0491E01D001E003E005E00021D0
:1001C000616032BD6FF0010032BD4FF0FF3032BDD3
:1001D000DA6B1047024BDFE7014BF9E70148704744
:1001E0005800002020000020C9B202788A421AB1CB
:1001F0001CBF10F8012FF9E718BF00207047B1F5B8
:10020000807F02D34FF0FF307047017001207047AC
:100210000078401E8041C043C00F704780B500B9D0
:1002200006A005490B681BB122220021984701E076
:1002300006F094FC222002BD98350020636F6E7397
:10024000747261696E742068616E646C65723A20C4
:10025000626164206D6573736167650000F101037D
:10026000810704D010F8011B820781B1FAD102681E
:10027000A2F10131914311F0803104BF50F8042FF5
:10028000F6E709BAB1FA81F100EBD100401CC01ABF
:1002900070470268531C036011707047C9B283072E
:1002A00006D0521E22D310F8013B9942F7D11FE02D
:1002B000083A13D302F1040241EA012141EA014163
:1002C00050F8043B121F21BF4B40A3F1013C2CEA24
:1002D000030C1CF0803FF3D0C9B2001F083210F8A5
:1002E000013B521E28BF91EA030FF8D818BF012026
:1002F000401E70472E00000070B5040000F01DF88D
:1003000020000AF027FE0AF091FE264D2E1D2988B6
:1003100030000AF0AEFE298830000AF000FF5FF4DA
:100320000030214908604FF490702049086020484F
:10033000016851F00101016070BD80B500224FF4E9
:10034000927104200AF0D7F81A49086000224FF48D
:10035000927104200AF0CFF81749086001BD2DE919
:10036000F841C9B004004FF49275290000226E468E
:10037000300007F033FD2E000027E8463A00310038
:10038000404607F02BFD5FF0FF32694609480068E0
:100390000AF0A4FA0128EED1BDF8001001A80AF075
:1003A00009FFE8E714310020040002405C0002402D
:1003B00058000240283500202C3500202DE9F04758
:1003C00004000D00160000275FF0000A280080B22C
:1003D0000B2872DB280080B2390089B20B318842C9
:1003E0006BDB380080B2205C7E2864D1380080B29C
:1003F0002044407855285ED15FF000085FF0000986
:100400000021380080B220448078002807D03800CE
:1004100080B2204490F802A01AF1030A24E03800C8
:1004200080B22044C0791F280FD1380080B2204408
:1004300090F80BA05FEA0A2A380080B22044807A44
:1004400050EA0A0A1AF10E0A0EE0380080B220447F
:1004500090F80AA05FEA0A2A380080B22044407A65
:1004600050EA0A0A1AF10D0A514689B2091F3800EA
:1004700080B22044801C08F083FC3A0092B25146BE
:1004800089B28A1804EB020111F8012C12023B0018
:100490009BB2514689B2CB1804EB030111F8021C40
:1004A0000A430100130089B29BB2994201D13780FF
:1004B00003E000218A467F1C8CE7504680B2BDE8ED
:1004C000F08700002DE9F84F05000E00170000240A
:1004D0005FF000087E20210089B239448870641CD6
:1004E0005520210089B239448870641C0020210005
:1004F00089B239448870641C7D480078210089B233
:1005000039448870641C0020210089B23944887005
:10051000641CB7F82402210089B239448870641C35
:10052000B7F8240280B2000A210089B239448870E9
:10053000641C1F20210089B239448870641C97F81C
:100540002602210089B239448870641C00202100F1
:1005500089B239448870641C300080B2FD281CDBED
:10056000200080B238448670641C300080B2000ADB
:10057000210089B239448870641CB1461FFA89F998
:10058000AA46200080B2384410F1020B4A46514678
:10059000584605F0B3FD34191FE0B1461FFA89F93A
:1005A000AA46200080B2384410F1020B4A46514658
:1005B000584605F0A3FD341997F82202210089B2AC
:1005C00039448870641C97F82302210089B23944A9
:1005D0008870641C2000401E3871210089B2891E79
:1005E000381D08F0CDFB0100200080B23844817036
:1005F000641C20000A0092B2120A03009BB23B4422
:100600009A70401C388080B2BDE8F28F2DE9F84F17
:1006100004000D0016000023002000210022B4F881
:100620000570BC461FFA8CFC4FF6FF7EF4450BD0DC
:100630003800DFF8BCC09CF800C080B21FFA8CFC08
:10064000604501D0002050E0DFF8A880B4F8030036
:10065000A8F824020020A8F8000094F8079088F871
:100660002692002088F82202002088F82302A07831
:10067000002804D1B4F809A014F10B0B03E0B5F184
:100680000B0A14F1090B4846C0B2042802D0F7281F
:100690000CD017E0504680B2002806D14246002117
:1006A0000020FFF70FFFA8F800000BE0504680B2D3
:1006B000002806D1424632210F48FFF703FFA8F871
:1006C0000000FFE7B8F8000000280CD1012088F8EE
:1006D0002202042088F82302424600210020FFF76E
:1006E000F1FEA8F80000B8F80000BDE8F28F0000A5
:1006F00058330020842D0020005000087047FEE78A
:10070000FEE7FEE7FEE7704780B501215FF080401D
:100710000AF003FC012825D16B490868401C0860D9
:1007200040F2F5100A680968B1FBF0F100FB1120F6
:10073000002812D165480168491C016064480178AD
:1007400009060AD5D0F82812491CC0F82812D0F89A
:100750002812052901D30521017001215FF0804095
:100760000AF0F2FB01BD5B480188C90608D55FF4B9
:100770000011594A116059490A68520852000A602A
:1007800000885749088057480088574908807047B3
:100790005648018840F2255211421CD0544A55490E
:1007A0000988C905C90D1180494912884B880B4435
:1007B0009A714A88521C4A804A88B2F5087F04DA46
:1007C0000A7852F080020A7001E006220A700022C4
:1007D000C1F8282203E047490988C905C90D0088E6
:1007E00045490880434800884149088070475FF4C4
:1007F00000303949086041480168490849000160F2
:100800003F480068D0F590703E490880704710B5A9
:10081000314C4FF4005020603B48016849084900C2
:1008200001603A4800884006FBD501200AF00FFC21
:1008300037488188006841615FF4003020604FF4E0
:1008400090702F4908602D48016851F00101016046
:1008500010BD2DE9F84F2D4C2088C0062BD51E4D1C
:100860005FF400362E60254F38684008400038603D
:10087000DFF89080DFF88890D9F80000D0F590700C
:10088000A8F800000023002241462248006809F031
:100890007EFF4FF4927A5FF0000B5A465146404675
:1008A00007F09CFA2E604FF49070C9F80000386889
:1008B00050F00100386020881749088017480088E8
:1008C00017490880BDE8F18F343500203835002005
:1008D000542B002000440040040002406C00024001
:1008E0009C350020044400409E3500200048004014
:1008F000A235002004480040A035002058000240E6
:100900005C000240143100204400024000380140E5
:10091000DC1200082C350020A435002004380140EA
:10092000A635002080B53D49086850F001000860F8
:100930003B4A13683B48034013600B683A48034046
:100940000B60086830F480200860106830F4FE0006
:1009500010605FF41F003549086000F001F801BD28
:1009600080B500F001F801BD82B0002001900020A8
:1009700000902A49086850F480300860086810F434
:10098000003000900198401C01900098002804D18C
:1009900001984FF6FF729042F0D10868800302D5AB
:1009A0000120009001E0002000900098012831D142
:1009B0001F48026852F0100202600268920892001A
:1009C0000260026852F0020202601548026802608A
:1009D00002680260026852F480620260026832F4C7
:1009E0007C120260026852F4A02202600A6852F08F
:1009F00080720A600A689201FCD501688908890042
:100A00000160016851F002010160016811F00C0100
:100A10000829FAD102B0704700000000001002401F
:100A2000041002400000FFF8FFFFF6FE081002402D
:100A30000020024000000000000000000000000054
:100A400000000000000000000000000000000000A6
:100A50000000000000000000000000000000000096
:100A60000000000000010203040506070809000059
:100A700000000000000A0B0C0D0E0F00000000002B
:100A80000000000000000000000000000000000066
:100A900000000000000A0B0C0D0E0F00000000000B
:100AA0000000000000000000000000000000000046
:100AB0000000000000000000000000000000000036
:100AC0000000000000000000000000000000000026
:100AD0000000000000000000000000000000000016
:100AE0000000000000000000000000000000000006
:100AF00000000000000000000000000000000000F6
:100B000000000000000000000000000000000000E5
:100B100000000000000000000000000000000000D5
:100B200000000000000000000000000000000000C5
:100B300000000000F0B40246106895681318506871
:100B400003EB5004C0071CD54D441AE013F8017B99
:100B500005F8017B491EF9D198B113F8011BC6F3C2
:100B60008106032E08BF13F8016B01EB06214942F1
:100B7000801C294405D011F8016B05F8016B401E5B
:100B8000F9D1A3420ED013F8016B16F0030104BF94
:100B900013F8011BC91C30090F28DBD113F8010B16
:100BA0000F30D7E7F0BC02F10C0070477665727326
:100BB000696F6E3D323031382D31302D3331267230
:100BC00065733D70726F64756374732532466D761C
:100BD0004B4C4D7A477049342665743D3230333979
:100BE000333037313632266D6574686F643D6D641D
:100BF00035267369676E3D7A745A464843676D6F50
:100C000050484D4D35302532424E5467696F772537
:100C1000334425334400000041542B514D54434686
:100C2000473D22716D7470696E67222C302C36300E
:100C30000D0A41542B514D544346473D2272656382
:100C4000762F6D6F6465222C302C302C310D0A41CB
:100C5000542B514D544346473D2273656E642F6DAE
:100C60006F6465222C302C310000000041542B5160
:100C70004D545355423D302C312C22247379732F1F
:100C8000252E3130732F252E3135732F64702F7040
:100C90006F73742F6A736F6E2F6163636570746511
:100CA00064222C310000000041542B514D54535507
:100CB000423D302C312C22247379732F252E313074
:100CC000732F252E3135732F64702F706F73742F2F
:100CD0006A736F6E2F72656A6563746564222C3166
:100CE0000000000041542B514D545355423D302CCF
:100CF000312C22247379732F252E3130732F252E1A
:100D00003135732F636D642F726573706F6E736509
:100D10002F2B2F6163636570746564222C31000092
:100D200041542B514D545355423D302C312C2224EB
:100D30007379732F252E3130732F252E3135732F74
:100D40007468696E672F70726F70657274792F7333
:100D50006574222C3100000041542B514D545355E1
:100D6000423D302C312C22247379732F252E3130C3
:100D7000732F252E3135732F7468696E672F70724B
:100D80006F70657274792F676574222C31000000D2
:100D9000453A5C416E7949445C4769745C4D373033
:100DA00030305C6B65726E656C5C706F7274616222
:100DB0006C655C4D656D4D616E675C686561705F0B
:100DC000342E630041542B514D545355423D302C29
:100DD000312C22247379732F252E3130732F252E39
:100DE0003135732F636D642F726571756573742F60
:100DF0002B222C310000000041542B514D545355EF
:100E0000423D302C312C22247379732F252E313022
:100E1000732F252E3135732F6F74612F696E666FB6
:100E2000726D222C31000000453A5C416E794944D4
:100E30005C4769745C4D373030305C6B65726E6551
:100E40006C5C706F727461626C655C6961725C701D
:100E50006F72742E63000000E0B50AF04FFA0020B4
:100E6000019001200090002380220549054806F0EA
:100E7000E9FF002801D007F022FA00200EBD00BFD4
:100E8000BC11000837B3000841542B51494F50455D
:100E90004E3D312C302C22544350222C2225642EDE
:100EA00025642E25642E2564222C25642C302C32BA
:100EB0000000000041542B514D544F50454E3D30E1
:100EC0002C226D717474732E6865636C6F75647316
:100ED0002E636F6D222C313838330000453A5C4167
:100EE0006E7949445C4769745C4D373030305C6BD7
:100EF00065726E656C5C7372635C71756575652E89
:100F000063000000453A5C416E7949445C4769746E
:100F10005C4D373030305C6B65726E656C5C737243
:100F2000635C7461736B732E63000000453A5C412F
:100F30006E7949445C4769745C4D373030305C6B86
:100F400065726E656C5C7372635C74696D657273F7
:100F50002E63000010B5074979441831064C7C44D3
:100F6000163404E00A68081D114488470146A1426E
:100F7000F8D110BDE0000000FC0000004173736573
:100F80007274206661696C6564212046696C653AFB
:100F90002025732C204C696E653A2025640A0000D8
:100FA00041542B514D54434F4E4E3D302C22252E53
:100FB000313573222C22252E313073222C222573B9
:100FC00022000000417373657274206661696C656C
:100FD00064212046696C653A2025732C204C696E8B
:100FE000653A2025640A00004173736572742066B7
:100FF00061696C6564212046696C653A2025732C13
:10100000204C696E653A2025640A000041737365BF
:101010007274206661696C6564212046696C653A6A
:101020002025732C204C696E653A2025640A000047
:10103000417373657274206661696C656421204632
:10104000696C653A2025732C204C696E653A202521
:10105000640A0000DDF0FFFFC4340000E800002057
:1010600000000000D1FAFFFF8C030000C400000064
:101070000000002041542B5149435347503D312C2F
:10108000312C22554E494E4554222C22222C22220C
:101090002C31000041542B514E54503D312C223202
:1010A00030322E3131322E31302E3336222C313245
:1010B0003300000041542B51494F50454E3D312CD7
:1010C000302C22544350222C222573222C25642CB0
:1010D000302C320000F00DF8002801D0FFF73AFF65
:1010E000AFF300800020AFF30080FFF7B5FE00F003
:1010F00002F80120704700F001B8000007463846AA
:1011000005F0E8FDFBE7000041542B514D544346E8
:10111000473D226B656570616C697665222C302CC9
:101120002564000041542B514D544346473D2276DF
:10113000657273696F6E222C302C34005379735FA3
:10114000527334383550726F636573735461736BC7
:101150000000000038B504460D46284600F006F8A9
:10116000A84218BF0024204632BD0000014908F003
:101170002DBF00BFA000002041542B514346473DE6
:101180002244424743544C222C30000041542B51FE
:101190004944454143543D3100000000504F5745FC
:1011A00052454420444F574E000000002B434D450C
:1011B000204552524F523A20313300005379735F29
:1011C0005461736B43726561740000004C54455F59
:1011D000496E69745461736B0000000001488047D8
:1011E00001480047250900085912000841542B47BF
:1011F000534E3D310000000041542B43434C4B3FC4
:101200000000000041542B4350494E3F00000000B5
:1012100041542B435245473F0000000041542B43AB
:10122000475245473F00000041542B514941435428
:101230003D31000041542B51504F57443D30000088
:101240006D764B4C4D7A47704934000052733438F8
:101250003554785461736B00AFF30080AFF30080B6
:10126000FFF738FF415445300000000041542B4344
:101270005351000041542B43494D490041542644E9
:1012800031000000514E54500000000052454144CE
:10129000590000002B435245470000002B434752A2
:1012A00045470000000C014000040000000C014014
:1012B00000080000000C014008000000000C014084
:1012C00010000000000C0140200000000008014058
:1012D0000002000000080140000400000008014076
:1012E0000008000000080140001000000008014054
:1012F00004000000000801400800000049444C457B
:1013000000000000546D722053766300546D7251DA
:101310000000000008000000F0E300E0FFF7FEBF5F
:10132000FFF7FEBFFFF7FEBFFFF7FEBFFFF7FEBFF1
:10133000FFF7FEBFFFF7FEBFFFF7FEBFFFF7FEBFE1
:10134000FFF7FEBFFFF7FEBFFFF7FEBFFFF7FEBFD1
:10135000FFF7FEBFFFF7FEBFFFF7FEBFFFF7FEBFC1
:10136000FFF7FEBFFFF7FEBFFFF7FEBFFFF7FEBFB1
:10137000FFF7FEBFFFF7FEBFFFF7FEBFFFF7FEBFA1
:10138000FFF7FEBFFFF7FEBFFFF7FEBFFFF7FEBF91
:10139000FFF7FEBFFFF7FEBFFFF7FEBFFFF7FEBF81
:1013A000FFF7FEBFFFF7FEBFFFF7FEBFFFF7FEBF71
:1013B000FFF7FEBFFFF7FEBFFFF7FEBFFFF7FEBF61
:1013C000FFF7FEBFFFF7FEBFFFF7FEBFFFF7FEBF51
:1013D000FFF7FEBFFFF7FEBFFFF7FEBFFFF7FEBF41
:1013E000FFF7FEBFFFF7FEBFFFF7FEBFFFF7FEBF31
:1013F000FFF7FEBF12AA011200012002010203043E
:1014000004100B060708090204060800A24A041E7D
:1014100019F00207726200080452FF01E3F402149B
:1014200010010000420C120140322003F11501129C
:101430001148212C43FF013C2101200A0204010133
:10144000C033002010340020082104211B61081241
:06145000E460F212D0641A
:105000004D37303030203234303930343031204771
:105010003233313230300000000000000000000068
:105020000000000000000000000000000000000080
:0250300000007E
:105034002DE9F14FB2B09946924600230691CDE98D
:1050440000333C9A0F930DF14A0114914A7011E018
:10505400329E57462C4617F8011B0698B047002885
:10506400069000F026810F98401C641E0F90F2D128
:105074003296AA449AF80000252808D1002100227B
:1050840009910A920B910C920D910E920FE06A46CF
:105094004FF0FF315046FBF79BF8050002D10F9803
:1050A40000F066BED4D50125E3E741F001011AF80A
:1050B400010F2028F9D023280CD02B2804D02D2828
:1050C40005D0302809D00BE041F00201EFE741F0B0
:1050D4000401ECE741F00801E9E741F01001E6E7DB
:1050E4002A280FD1D9F8002052F8040BC9F800205F
:1050F4000028119003D54042119041F004010AF1B7
:10510400010A14E01192DFF8EC3B0AE0119898428E
:1051140005DA00EB800402EB4402303A11920AF102
:10512400010A9AF80020A2F130000A28EED39AF876
:1051340000002E2803D04FF0FF32109229E01AF815
:10514400010F2A2809D1D9F8000050F8042BC9F816
:10515400000010920AF1010A1BE02D280CBF0AF18D
:10516400010A002000221092DFF8882B0BE040B9DE
:10517400109B934205DA03EB830504EB4504303CB2
:1051840010940AF1010A9AF80040A4F130030A2BA2
:10519400EDD3ADF848100FF660309AF80010FBF725
:1051A40021F808B11AF8010B8DF84A009DF84A005D
:1051B400682805D19AF8000068280CD1622106E01D
:1051C4006C2804BF9AF800006C2804D171218DF872
:1051D4004A100AF1010A1FA808901AF801BBBBF192
:1051E40025012DD01C3900F06181091F022940F2EC
:1051F4005D810E392AD0491F00F0B384093900F0CB
:105204005581891E00F04985491E00F0F584491E28
:10521400022940F24B81091F00F0EE84491F00F07F
:10522400BA80491E00F09D84491E65D0C91E21D054
:10523400891E00F09684C91E00F0938400F04CBDD2
:1052440025238DF87C30012109912AE06C208DF80A
:105254004A00D9F8000050F8042BC9F80000002ACD
:1052640043D11499487800283DD04FF0FF340FF60D
:10527400902012E09DF84A006C28EAD0D9F800008A
:1052840050F8044BC9F800000794D4B9149948782D
:1052940098B14FF0FF340FF68420FAF7BDFF201ABF
:1052A40007D132981FAA04A900F065FD00287FF5F4
:1052B400E1AE4FF0FF3000F05BBD0FF67C200790AD
:1052C400EFE7109D002D04D52046FAF7C5FF0446EC
:1052D40007E02A462046FAF7DFFF002814BF041B24
:1052E4002C460A94DDE70FF65422329804A900F004
:1052F400C8FD0028D5D5DCE7D9F8001051F8040B17
:10530400C9F8001020F00004002121F0FF351FAB84
:10531400CDE904450793DDE9042308993C2413B936
:105324000AB9109898B102F00F053035641EEEB238
:105334003A2EA8BF2735120942EA03721B090D55FC
:1053440008BF002A03D007980D19A842EBD3081907
:105354000790C4F13C0210980A92824209DABDF81F
:105364004810821A4FF6EF7001400C92ADF84810C5
:1053740097E7002895D59DF8480000F01400102800
:105384008FD1119B09990C985B1A1B1A9A1A002A3F
:1053940087DD0C9285E71499487820B14FF0FF34EB
:1053A4000FF69C1079E79DF84A00622862D06828BD
:1053B40019D06A2840D06C2806D071284DD07428A2
:1053C4002DD07A281ED064E0D9F8001051F8040BCF
:1053D400C9F8001020B94FF0FF340FF67C105CE7D9
:1053E4000F9901605DE7D9F8001051F8040BC9F872
:1053F400001020B94FF0FF340FF65C104DE70F9901
:1054040001804EE7D9F8001051F8040BC9F80010D8
:105414000028E5D14FF0FF340FF63C103DE7D9F8F2
:10542400001051F8040BC9F800100028D8D14FF02F
:10543400FF340FF6241030E7D9F8001051F8040BAC
:10544400C9F8001020B94FF0FF340FF60C1024E710
:105454000F9AD317C0E9002323E7D9F8001051F8B5
:10546400040BC9F800100028F2D14FF0FF340FF6F6
:10547400E80012E7D9F8001051F8040BC9F800103D
:1054840020B94FF0FF340FF6D00006E70F990170F2
:1054940007E7D9F8001051F8040BC9F800100028E8
:1054A4009ED14FF0FF340FF6B000F6E6D9F8002095
:1054B400D21D22F00702C9F80020D2E90001083207
:1054C400C9F80020CDE90401C80F02D009982D21A4
:1054D4000AE0BDF84800810702D509982B2103E0B2
:1054E400C00705D5099820211FAA1154401C099012
:1054F400DDE9042309991FA8CDE92E2308444BF0C4
:1055040020016129079015AC0BD01099002902D510
:105514000621109105E001BF4BF02001672901220B
:105524001092DDE9042359004915491C10D11A03CE
:105534000ED0ABF1610503211A2D0A9102D20FF6A8
:10554400A43101E00FF6A031032200F0D5FDA8E656
:1055540059004915491C0AD11A0308D1ABF1610558
:1055640003211A2D0A9116D30FF68431ECE7DDE9F5
:105574000401CDE93001DDE9302323F00047B7F51C
:10558400801F22F000060DD20022002F08BF002E3B
:10559400029203D116E00FF65431D5E702AA00F0C7
:1055A400FFFD0FE0DFF8EC0ADFF8EC1A00EB175010
:1055B4000290DDE930234FF0FF301940DFF8DC7A48
:1055C40010403943CDE904014BF0200061280DD18E
:1055D400079830210170821CBBF1610F07920CBF48
:1055E4007821582141700998801C0990DDE9040153
:1055F40020F0000231F0004308BF002A02D1002647
:10560400002571E14BF02008B8F1610F40F0BE8035
:105614001098002847BF21210391401C0390039F49
:10562400DDE92E017F1C00220023DDE9044500F0A2
:10563400EFFD02998DF8542038BF85F00045091F0D
:10564400002F02910DF155065DDDDFF8541ACDE906
:10565400302140F2FF732E93204629460022002376
:1056640000F0EEFD4FD24800400D00F11C0215D0B1
:10567400002A13DD2E9B9A420ADBDDE9300121F07A
:10568400004205F000400243DDE93001114611E01B
:105694006FF31E5141EA025120460BE024F0000052
:1056A40035F0004108BF00280FBF29461C222946B7
:1056B40000F0DEFD04460D4600F078FEFF1F002FCB
:1056C400804609DD00F090FE02460B46204629463E
:1056D40000F09CFE04460D46F01D0721B8F1000FB2
:1056E4000CDD491E5EBF08F00F0200F8012D4FEAE1
:1056F4002818F3D502E0002200F8012D491EFAD53E
:10570400C61D002FA8DC0DF15500361A03988642F9
:10571400D8BF304600280DF1550430D4B04206DA23
:105724000DF155010A5C082AA8BF0F2100DA0021F7
:10573400024615AB134400E0401E13F80159521EF3
:105744008D42F9D00F2904D10DF155018B5C5B1CFE
:105754008B54002A04D50299091D15AC401C0291F2
:10576400411E0CD46218ABF13A0613783033DDB223
:105774003A2DA8BFF318491E02F80139F5D510993E
:10578400002940F1AF80421E1092ABE00299DFF88D
:10579400142947F29750414391FBF2F2DDE92E457B
:1057A400029225F00045D2F1070204DD2046294685
:1057B40000F04CFC0BE052420020DFF8EC1800F043
:1057C40045FC02460B462046294600F091FE04465D
:1057D400B8F1660F109806BF029F0A3706273F18D4
:1057E400142FC8BF142730208DF854000D46002014
:1057F400DFF8B818CDE92E010DF15506002F33DD81
:105804002046294600F098FF01460A4606F108039F
:1058140004200A26B2FBF6F606EB860EA2EB4E0235
:10582400303203F8012C0A22B6FBF2F202EB820EAC
:10583400A6EB4E063036401E03F8026DE9D1083F50
:10584400002F03F10806D9DD084600F089FF02465F
:105854000B462046294600F0D9FDDDE92E2300F051
:105864008DFF04460D46CBE70DF15500361A0DF1B8
:10587400550404E00298401E761E0290641C2078B1
:105884003028F7D0B8F1660F02D10299491C04E020
:10589400B8F1650F0CBF0121002110980818864249
:1058A400B8BF701E00281DD4B04204DA215C34292C
:1058B400C8BF392100DC30210246631E9D1800E078
:1058C400401E15F80169521E8E42F9D0392902D1C1
:1058D400A15C491CA154002A04D50299491C1C4608
:1058E400401C02910646029DFAF776FC406A07784E
:1058F400DDF8408030B2002802DC01260FF2F47497
:105904004BF02000662808BF6D1C16D0672846D1CE
:1059140028B210F1040F48DB404546DA9DF84800F0
:105924006D1C010703D430B24045B8BF804628B28D
:10593400B8EB000848BF4FF000080FFA85FB079842
:105944000A99BBF1000F00F3B2804A1C0A9230237B
:105954004354B8F1000F03DC9DF84800010704D557
:105964000A98411C0A9107990F5418EB0B0FB8BF02
:10597400C8F100052DB268420D90A84432B290459A
:10598400B8BF4646079B0A9836B20B963246214664
:10599400184400F0B1FBA8EB06000E90CBE0BBF17D
:1059A400610F17D14FF0700B19E030B2404504DAA3
:1059B4009DF848100A0758BF8046B8F1010848BF4F
:1059C4004FF00008BBF1670F14BF4FF0450B4FF0C9
:1059D400650B04E0BBF1410F08BF4FF0500B0A9870
:1059E400411C0A91B8F1000F079914F8012B0A54CD
:1059F40003DC9DF8480001071AD50A98411C0A9156
:105A0400B8F1000F07990F5412DD761E30B28045AD
:105A140007980A9BB8BF464632B22146184400F0A4
:105A24006BFB0A9936B271180A91A8EB06000D9027
:105A340007980A9908442AB2002A80F800B003D4CF
:105A44002B224270811C04E02D2141701546811CDB
:105A54006D4200202EAA0A2409E02B4693FBF4F59C
:105A640005EB8506A3EB460302F8013B401C2DB26F
:105A7400002DF2DC012806DC4BF02002652A04BF6D
:105A8400302201F8012B00282EAA08D1302001F879
:105A9400010B06E0401E135C303301F8013B002883
:105AA400F8DC079A0A981044091A0B9143E0084459
:105AB40031B22AB2914219DA32B2214600F01CFB0B
:105AC4000A9936B27118ABEB0606B8F1000F0A91C9
:105AD4000D9603DC9DF84800020704D50798475447
:105AE4000B99491C0B91CDF8388024E0214600F035
:105AF40003FB0A98761B5844B8F1000F0A9003DCA4
:105B04009DF848100A0703D5411C0A9107990F54C0
:105B140030B2804507980A9BB8BF464632B204EBC0
:105B24000B01184400F0E8FA0A9836B230180A90CB
:105B3400A8EB06000D909DF8480000F01400102812
:105B44007FF4AFAB099A0A990D988A180B998218B9
:105B54000E988A18821811988242BFF6A2AB821A54
:105B640017E49DF84A00622808D068280ED06A28F5
:105B740014D06C281FD0712810D01CE0D9F8001064
:105B840051F8040BC9F80010C0B21AE0D9F800109B
:105B940051F8040BC9F8001080B212E0D9F80020C3
:105BA400D21D22F00702C9F80020D2E90001083210
:105BB400C9F8002006E0D9F8001051F8040BC9F820
:105BC40000100021CDE904019DF8480001075AD5D1
:105BD400DDE90423002B08BF002A54D04BF0200039
:105BE400782850D109981FA930220A54401C431C1C
:105BF400099301F800B046E09DF84A00622808D0F5
:105C040068280ED06A2814D06C281FD0712810D0B0
:105C14001CE0D9F8001051F8040BC9F8001040B288
:105C24001AE0D9F8001051F8040BC9F8001000B2BA
:105C340012E0D9F80020D21D22F00702C9F8002092
:105C4400D2E900010832C9F8002006E0D9F80010B2
:105C540051F8040BC9F80010C117CDE9040100295B
:105C640002D509982D210AE0BDF84800810702D524
:105C740009982B2103E0C00705D5099820211FAA04
:105C84001154401C09901FA809990144079104A8C4
:105C9400594600F056F9FFF704BB9DF84A006C28FA
:105CA4000BD001210991D9F8000050F8041BC9F860
:105CB40000008DF87C10FFF7F4BAD9F8000050F812
:105CC400041BC9F8000015914FF0FF321092002117
:105CD400169115AAFFF709BB25210122BBF1000F7C
:105CE4008DF87C1009923FF4DCAA8DF87DB0022176
:105CF400FFF7AABACBCCCC0C686A6C747A4C00005F
:105D04007072696E74665F733A2062616420256CF8
:105D14007320617267756D656E7400007072696ED0
:105D240074665F733A206261642025732061726730
:105D3400756D656E74000000000000000000000036
:105D44007072696E74665F733A20256E206469739D
:105D5400616C6C6F776564007072696E74663A206A
:105D640062616420256E20617267756D656E7400D2
:105D740033B0BDE8F08F2DE9FC410F46064690464E
:105D84007A6B7869396ABC6A121AB869521A796AE4
:105D9400121AF869521A121A97F83800141B41079C
:105DA4000FD42020002C8DF800000ADD25460123A5
:105DB4006A463946304600F07DF900285DD16D1EF3
:105DC400F5D17B6942463946304600F073F9002824
:105DD40053D130208DF800003D6A002D09DD0123E8
:105DE4006A463946304600F065F9002845D16D1EF3
:105DF400F5D1BB69FA683946304600F05BF90028F2
:105E04003BD130208DF800007D6A002D08DD012390
:105E14006A463946304600F04DF970BB6D1EF6D126
:105E2400F868B969FB6942183946304600F042F90E
:105E340018BB30208DF80000BD6A002D08DD012359
:105E44006A463946304600F035F9B0B96D1EF6D1D0
:105E540097F8380041070DD52020002C8DF800005C
:105E640008DD01236A463946304600F023F920B99B
:105E7400641EF6D10020BDE8F6814FF0FF30BDE886
:105E8400F6812DE9F8470D46A3B02F6B002F82460B
:105E9400904648BF6FF0004700F041FD696B401821
:105EA40001AA0021C2E90011812828BF4FF0FF3068
:105EB40044D289461EE0A74230DB68692018812855
:105EC4000BD30021696303AA29465046FFF753FF09
:105ED4005FEA000922D40020686103AB6E692246A0
:105EE4006946981900F008F9A6196E6158F8040B70
:105EF400A0B13F1B002F11DDD8F8001001AA68469D
:105F0400FAF768F90446002C05D4D8F800000028F4
:105F1400D1D1641ECFD54FF0FF390EE0B9F1000F97
:105F2400504604D103AA2946FFF725FF8146B9F15B
:105F3400000F02D1002068616863484624B0BDE8C0
:105F4400F0872DE9FC4307466F293E6908BF082402
:105F540005D041F02000782814BF0A2410243C25E1
:105F6400D7E90023642918BF69299046994605D1C9
:105F7400002B03D5D8F1000869EB4909B9F1000FEA
:105F840008BFB8F1000F0CD1386B50B9082C39D1C7
:105F940097F83800010735D530203B2586F83B00BB
:105FA40030E08DF80010404649462246E31700F0E1
:105FB400BBFC3032D0B26D1E3A28019504DB9DF84B
:105FC4000000A0F151018A18725540464946224604
:105FD400E31700F0A9FC80465FEA010908BFB8F1A5
:105FE400000F03D0F86871198842DCD3082C09D15A
:105FF40097F83800010705D5705D302802D06D1E72
:1060040030207055C5F13C02BA617119F960386BE2
:10601400824208DA821A3A624FF6EF70398F0140F1
:106024003987BDE8F38300280ED597F8380000F0CF
:106034001400102808D17B6B7969386A5B1A1B1A23
:106044009A1A002AC8BF3A62BDE8F3832DE9D04307
:1060540006460F4614464FF00008DFF8549012E04D
:10606400E00707D542464B463046394600F086FBEA
:1060740006460F464046494642464B4600F07EFBE4
:10608400641080468946002CEAD130463946BDE882
:10609400D083000002FCFFFFFFFF0F800000E03F01
:1060A4000000F07FA08601000000F03F84D79741F4
:1060B40000002440F8B505460E4617461C4600204D
:1060C4005CB117F8011BB068A847B06030B1F06A42
:1060D400401CF0620020641EF3D1F2BD4FF0FF308B
:1060E400F2BD00006E616E004E414E00696E6600A6
:1060F400494E46003000000062B38B0708D0521EA0
:1061040011F8013B00F8013B00F024808B07F6D125
:10611400830740F0208000BF103A07D330B4B1E8C1
:106124003810103AA0E83810F9D230BC530724BF15
:10613400B1E80810A0E8081044BF51F8043B40F847
:10614400043BD20724BF31F8022B20F8022B44BFB2
:106154000B7803707047121F17D35B0009D151F8F5
:10616400043B20F8023B1B0C121F20F8023BF6D222
:106174000BE051F8043B00F8013B1B0A20F8023BFA
:106184001B0C121F00F8013BF3D238BF121D521E24
:1061940024BF11F8013B00F8013BF8D87047000018
:1061A40010B5144600F002F8226010BDC1F30A5382
:1061B40043B14A0012F5001F28D2A3F2FE32A1EB2C
:1061C4000251704750EA410C20D001F0004C31EAF2
:1061D4000C01B1FA81F204BFB0FA80F3D2180B3A81
:1061E400B2F120032CBF00FA03F1914041EA0C0103
:1061F4003EBFC2F1200C20FA0CF3194390405242E6
:1062040040F2FD33D21A01EB03517047002270476C
:106214004FF4001C1CEB410F94BF1CEB430F09E02F
:1062240041EA030C50EA4C0C52EA0C0C03D299429A
:1062340008BF9042704714BF8B42824270474300AC
:106244004FF4001C1CEB410F94BF1CEB430F09E0FF
:1062540041EA030C50EA4C0C52EA0C0C03D28B4278
:1062640008BF8242704714BF9942904270470000B1
:10627400124254D440F2FF7C1CEA11530FD0634500
:1062840031D09B1863453CBF01EB0251704701F0CC
:10629400004141EA0C510020AFF30080704750EAFE
:1062A400410320D001F0004C91EA0C011CD0B1FA5A
:1062B40081F30B3B9A420DD9D21A994051EA0C0151
:1062C400C3F1200C20FA0CFC61449840531C40F2AA
:1062D400FF7CD7E7914041EA0C01C2F1200C20FA7F
:1062E4000CF3194390407047B0FA80F31533202B18
:1062F400E0D3202AEED3203A203B9A4209D9D21A7D
:1063040000FA03F141EA0C010020531C40F2FF7C27
:10631400B8E700FA02F141EA0C010020704752424A
:1063240040F2FF7C1CEA11530DD06345DBD0B2EB85
:10633400030C3CBFA1EB025170470CF1010221EAAE
:10634400035141F4801150EA410CCCD001F0004CCF
:10635400352A27DC30B481EA0C01B2F1200309DAD2
:10636400C2F12003044601FA03F5D0402843D1408A
:106374009C400CE0C3F12002450020FA03F418BF4E
:1063840044F0010421FA03F091400C43002174F11C
:10639400004550F1000051EB0C01244230BC7FF465
:1063A4007BAF70476146002076E70000C1F30A53D3
:1063B40040F2FE329B1A14DDD3F120034FEAE1725E
:1063C40008DDC90241EA505141F00040D84080182C
:1063D4005040704703F2E13010B1D24382F00040E4
:1063E4007047002070470000C11768B14840401A48
:1063F400B0FA80F29040D21CC907C2F5846241EA27
:10640400025202EBD02140057047000070B44FF0F7
:10641400004591EA030F40F1A3836B40841A71EBAA
:10642400030603D2001BB141121973414FF4001C3F
:106434001CEB410F34BF7CEB430442E00C0DA4EB96
:106444001356352E4FDC45EAC323DB0A45EAC12146
:10645400C912B6F120050DDD63FA05F6EB4086EAB4
:106464000305124218BF45F00105C01851F100019F
:106474000CD213E062FA06F5F2405540F3415A405B
:10648400B340F3405A408018594107D349085FEAA2
:1064940030005FEA350528BF45F0010501F580119C
:1064A400420875F1004250F1000041EB04514E00E6
:1064B40016F5001F70BC38BF70470020090D090590
:1064C40070471CEB410F10D252EA43060BD0BCEBD1
:1064D400410F05D80C0DAB43661E342EB6DD02E029
:1064E400AB438018594170BC704770BC70470000C2
:1064F400F0B540F2FF7581EA030C0CF0004C15EA8C
:1065040011541DBF15EA1357AC42AF42E5E0BC413C
:10651400C1F31301C3F31303801A994143F48013A5
:1065240004D2641E4000494180185941C90241EA1D
:106534005051B1FBF3F603FB1611A2FB0675D7EB22
:10654400C020A94102D2761E80185941C90241EAED
:106554005051B1FBF3FE03FB1E11A2FB0E75D7EBEA
:10656400C020A94103D2AEF1010E8018594189021D
:1065740041EA9051760546EA8E2EB1FBF3F603FB11
:106584001611A2FB0675D7EB8020A94102D2761E14
:1065940080185941C90241EA50514EEA060EB1FB36
:1065A400F3F603FB1611A2FB0675D7EBC020A94135
:1065B40002D2761E80185941C90241EA5051B1FBFA
:1065C400F3F703FB1711A2FB0735D3EBC020A94156
:1065D40067F100070CBF004247F0010766F3D527B7
:1065E4004FEA1E31B80814F5806412DDBD0775F159
:1065F400004250EB0E5051EB045111F5801F5CBF6B
:1066040041EA0C01F0BD4CF07F6141F0E041002013
:10661400F0BDBD076D0840EA0E5041F48011D4F17D
:106624000104B4F120060ADAC4F120060200E040B5
:1066340001FA06F3E1401843B24015430EE0342C4E
:1066440013DCC6F1200445EA40056D0820FA06F281
:10665400154321FA06F0A1400D43002175F10042D3
:1066640050F1000051EB0C01F0BD00205FEA0C0179
:10667400F0BDCFB992185B41B3FA83F704BFB2FA05
:1066840082F6BF190B3FB7F120062FBF02FA06F3BB
:10669400BB40C7F1200622FA06F638BF3343BA409E
:1066A4001CB1E419641E33E77F4231F00041B1FAB2
:1066B40081F404BFB0FA80F6A4190B3CB4F12006AF
:1066C4002FBF00FA06F1A140C4F1200620FA06F615
:1066D40038BF3143A0403C1B1AE7AC421ABF05EA5D
:1066E4001357AF4212E050EA41061CBF52EA430678
:1066F400BFE750EA4107304661461CBF41EA0551F5
:10670400F0BD52EA430C08BFC143F0BD00204FF472
:10671400001616EB410F98BF16EB430F08BF16EB9C
:10672400410F24BFC14305E016EB430F0CBF614684
:106734004CEA0551F0BD0000400D491840EA8120A3
:106744000CD2490DA1F58061491C40F0004005DBE5
:10675400D1F11F0154BFC840C017704700207047D3
:10676400014648B1B0FA80F18840C91CC1F5846182
:10677400090501EBD021400570470000B0B581EA5E
:10678400030C0CF0004C40F2FF7515EA11541DBFC8
:1067940015EA1357AC42AF4239E0E41923EA4553F2
:1067A40043F48013C90241F0004141EA505EC7023C
:1067B4001100A7FB020200284FF00000EEFB0120AD
:1067C4004FF00001E3FB072118BF42F0010240181B
:1067D40000214941E3FB0E01A4F580640F0302D2BA
:1067E40052004041494154F101046CDD470872F103
:1067F400004250F1000051EB0451A1F580115CBF3F
:1068040041EA0C01B0BD4CEA05510020B0BD05EAD7
:106814001357AC4214BFAF4241E050EA410E1CBFD3
:1068240052EA430E02E061460020B0BD24423C44DB
:106834001BD15FEA070EF6D0090302BF0146002010
:10684400AEF1140EB1FA81F7AEEB070401FA07FEBC
:106854000C37C7F1200100FA07F7C8404EEA000ED2
:1068640023EA455343F48013A2E733F00043B3FA19
:1068740083F704BFB2FA82FE77440B3FE41BB7F1FF
:10688400200E2FBF02FA0EF3BB40C7F1200E22FAEE
:106894000EFE38BF43EA0E03BA40641C82E750EA96
:1068A400410E14BF52EA430E6FF000014FF400177B
:1068B40017EB430F8ABF194617EB410FB5E74CEAB4
:1068C40005510020B0BDD4F10104B4F120070FDA62
:1068D400C4F12007520828BF42F0010210FA07F55C
:1068E40001FA07F7E1BF2A43E0403843E1400FE0F3
:1068F400352C98DCC7F1200452EA400220FA07F252
:1069040018BF42F0010231FA07F0A1400A43002106
:1069140072F1004250F1000051EB0C01B0BD80B5A2
:10692400F9F722FC006C02BDBBBBE1B1B2F5803FBC
:1069340080F07E80022A1ED98C46B1FBF2F102FB64
:1069440011C31B0443EA1043B3FBF2FC02FB1C33E8
:1069540080B240EA0343B3FBF2F002FB103240EA98
:106964000C4000237047022A05D98446B0FBF2F09C
:1069740002FB10C270474AB105D100F00102490878
:106984005FEA3000704700220023704700F09EB990
:106994000B000200002100207047904271EB030CB1
:1069A400F6D3B3F5803F2FD2F0B5B3FA83F7B1FA3B
:1069B40081F4A7F10F0E3D1B5340CEF1200602FADD
:1069C4000EF2F3415340B5F10F0746D80F3C2C4467
:1069D4004140C4F12006A040F1414140B1FBF3F62F
:1069E40003FB1611A2FB0645001BA94102D2761E29
:1069F4008018594180EA010221FA0EF362FA0EF27C
:106A040000215A403046F0BD30B4B1FBF3FC03FB27
:106A14001C11A2FB0C45001BA94103D2ACF1010CD3
:106A24008018594130BC02460B466046002170472D
:106A3400B2F1807F65D3F0B5B2FA82F7B1FA81F48E
:106A4400C7F10F063D1B22FA06F307F1110EF241BE
:106A540020355A40B5F10F07B8D94140C4F120069A
:106A6400A040F1414140B1FBF3FC03FB1C11A2FB2C
:106A74000C45001BA94103D2BCF1010C80185941FB
:106A84000F2F12D30F3FC90341EA5041B1FBF3F674
:106A940003FB1611A2FB0645D4EBC030A94102D278
:106AA400761E8018594146EACC3C07B34140C7F1F1
:106AB4002006B840F1414140B1FBF3F603FB161147
:106AC400A2FB0645001BA94102D2761E801859413B
:106AD40080EA010221FA0EF3C7F1200462FA0EF2F1
:106AE4000CFA07F05A402CFA04F13043F0BD80EA66
:106AF400010221FA0EF3002162FA0EF260465A40B6
:106B0400F0BD8C46B1FBF2F102FB11C31B0243EA58
:106B14001063B3FBF2FC02FB1C331B024CEA0020A3
:106B240043EA1063B3FBF2FC02FB1C331B024CEA86
:106B3400002043EA1063B3FBF2FC02FB1C331B028C
:106B44004CEA002043EA1063B3FBF2FC02FB1C3264
:106B54004CEA002000237047012000F0B9B800007F
:106B6400841A71EB030604D26E40001BB141121962
:106B740073414FF4001C1CEB410F34BF7CEB430604
:106B840083E00C0DA4EB1356362E00F37C80012E0B
:106B940045EAC32341DC43EA525312BFD2029202B4
:106BA4005B08240545EAC12141EA5051D2EBC020DB
:106BB400994125D407D1B0FA80F610FA06F162D0D3
:106BC4000020203608E0B1FA81F6B140C6F1200277
:106BD40020FA02F21143B0404FEAF474B4EB465485
:106BE40034F001064FEA74040AD8D6F50016760D7F
:106BF40004F00044F04061FA06F25040F14048408D
:106C0400C00A40EA415021F0004128BF5FEA500524
:106C140050F1000044EBD12135E0DB0A45EAC12103
:106C2400C90AB6F120050EDD42EA0242120CC5F192
:106C3400200603FA06F6EB4042EA06056D42984147
:106C440061F100010DE062FA06F5F240554063FA85
:106C540006FC82EA0C02F3405A406D42904161EB1B
:106C6400030111F4801F05D1641E620502D06D007A
:106C74004041494121F48011430875F1004350F12A
:106C8400000041EB045170BC70471CEB410F15D25E
:106C940023F0004352EA43060BD04FEA4C0CBCEB02
:106CA400410F04D80C0D661E342EB7DDEBE7801AB5
:106CB400994150EA410608BF0021E4E708BF1CEBF4
:106CC400430F28BF6FF00001DDE7000070470000AC
:106CD40080B5AFF30080024A11001820ABBEFBE779
:106CE4002600020080B55FF4E13000F09FFF01F060
:106CF4000AF80021012001F017F80020DFF8E41958
:106D0400087001BD2DE9F04705000E0017000024AE
:106D14004FF4B4785FF00009AA464A46414650460B
:106D240001F05AF83000C0B2012840F064814FF4F9
:106D340096702100C9B205EB8101C1F8B4000121AC
:106D44002200D2B22A4482F8341101212200D2B2A4
:106D54002A4482F89310641C2100C9B205EB810116
:106D6400C1F8B40001202100C9B2294481F83401DA
:106D740002202100C9B2294481F89300641CC82070
:106D84002100C9B205EB8101C1F8B400192021002A
:106D9400C9B2294481F834010B202100C9B2294425
:106DA40081F89300641CC8202100C9B205EB81015D
:106DB400C1F8B40002202100C9B2294481F8340189
:106DC4000C202100C9B2294481F89300641CC82016
:106DD4002100C9B205EB8101C1F8B4000A202100E9
:106DE400C9B2294481F834010D202100C9B22944D3
:106DF40081F89300641CC8202100C9B205EB81010D
:106E0400C1F8B40002202100C9B2294481F8340138
:106E140012202100C9B2294481F89300641CC820BF
:106E24002100C9B205EB8101C1F8B400142021008E
:106E3400C9B2294481F8340104202100C9B229448B
:106E440081F89300641CC8202100C9B205EB8101BC
:106E5400C1F8B40050202100C9B2294481F834019A
:106E640005202100C9B2294481F89300641CC8207C
:106E74002100C9B205EB8101C1F8B4005020210002
:106E8400C9B2294481F8340106202100C9B2294439
:106E940081F89300641C4FF448702100C9B205EBDB
:106EA4008101C1F8B40002212200D2B22A4482F83E
:106EB400341108212200D2B22A4482F89310641CAF
:106EC40040F6B8312200D2B205EB8202C2F8B41007
:106ED40002212200D2B22A4482F83411092122006C
:106EE400D2B22A4482F89310641C2100C9B205EB83
:106EF4008101C1F8B40004212200D2B22A4482F8EC
:106F0400341115212200D2B22A4482F89310641C51
:106F14002100C9B205EB8101C1F8B40004212200AB
:106F2400D2B22A4482F8341120212200D2B22A4457
:106F340082F89310641C2100C9B205EB8101C1F8E9
:106F4400B40032212200D2B22A4482F834111F2123
:106F54002200D2B22A4482F89310641C2100C9B2E0
:106F640005EB8101C1F8B40002212200D2B22A4407
:106F740082F8341116212200D2B22A4482F89310E6
:106F8400641C2100C9B205EB8101C1F8B4000521DC
:106F94002200D2B22A4482F8341118212200D2B23B
:106FA4002A4482F89310641C2100C9B205EB8101C4
:106FB400C1F8B40014212200D2B22A4482F8341158
:106FC40029212200D2B22A4482F89310641C2100A1
:106FD400C9B205EB8101C1F8B40014202100C9B283
:106FE400294481F834012C202100C9B2294481F8B4
:106FF4009300641C51E04FF4FA602100C9B205EB20
:107004008101C1F8B40005202100C9B2294481F8E6
:10701400340110202100C9B2294481F89300641C72
:10702400B4202100C9B205EB8101C1F8B4000120EC
:107034002100C9B2294481F8340103202100C9B2D6
:10704400294481F89300641C4FF4C8702100C9B22C
:1070540005EB8101C1F8B40001202100C9B2294423
:1070640081F834010F202100C9B2294481F893002A
:10707400641C14202100C9B205EB8101C1F8B400DD
:1070840001202100C9B2294481F8340100202100E3
:10709400C9B2294481F89300641C0220A5F85E015A
:1070A40085F85C6185F858415FF04808B946AA46FE
:1070B400424649465046FFF71FF8BDE8F087FEB543
:1070C40004000D00002094F85911214491F89360B4
:1070D4003100C9B200295BD001295ED0022968D0F1
:1070E400032966D0042900F09980052900F09C80CA
:1070F400062900F09F80072900F0A280082900F0EB
:10710400A580092900F0A8800A2900F0BA800B297B
:1071140055D00C295ED00D2968D00E2972D00F29C4
:1071240035D0102900F0A480122971D0132900F061
:107134009980152900F0BF80162900F0CF80182906
:1071440000F0D2801B2957D01C2900F0DA801D29B9
:1071540000F0E1801E2900F0E8801F2900F0B880CB
:10716400202900F0AE80212900F0E980222900F0D6
:10717400F080232934D0242926D0292900F0F38053
:107184002B2900F0FA802C2900F0018108E107E1A5
:10719400DFF8E409818800680161DFF8DC79B888E8
:1071A40039684861C82000F0DCFFB8883968086194
:1071B400F6E0DFF8C409818800684161F0E07BA152
:1071C400280001F0A5FDEBE0DFF8B019280001F07C
:1071D4009FFDE5E0DFF8A819280001F099FDDFE044
:1071E400DFF8A019280001F093FDD9E0DFF8981921
:1071F400280001F08DFDD3E0DFF89019280001F09C
:1072040087FDCDE0DFF88819280001F081FDC7E093
:10721400DFF88019280001F07BFDC1E0DFF8781960
:10722400280001F075FDBBE0DFF87019280001F0BB
:107234006FFDB5E0DFF86819280001F069FDAFE0E3
:10724400DFF86019280001F063FDA9E0DFF85819A0
:10725400280001F05DFDA3E0DFF85019280001F0DB
:1072640057FD9DE0DFF84819280001F051FD97E033
:107274000A2000F076FFDFF83C19280001F048FDF1
:107284008EE094F8470000280DD1A0880290E078A1
:107294000190A078009063782278DFF81C19280008
:1072A40001F036FD06E0A388A21DDFF810192800BE
:1072B40001F02EFD74E0DFF80819280001F028FD24
:1072C4006EE07822DFF8FC18280001F021FD67E069
:1072D400DFF8F418280001F01BFD61E0DFF8EC187A
:1072E400280001F015FD5BE0DFF8E4080090DFF80A
:1072F400E43814F15A02DFF8E018280001F008FD20
:107304004EE014F15A03DFF8CC28DFF8D018280037
:1073140001F0FEFC44E014F15A03DFF8B828DFF86A
:10732400C018280001F0F4FC3AE014F15A03DFF825
:10733400A428DFF8B018280001F0EAFC30E014F1CA
:107344005A03DFF89028DFF8A018280001F0E0FCC9
:1073540026E014F15A03DFF87C28DFF8901828009F
:1073640001F0D6FC1CE014F15A03DFF86828DFF8BA
:107374008018280001F0CCFC12E014F15A03DFF865
:107384005428DFF87018280001F0C2FC08E014F15A
:107394005A03DFF84028DFF85418280001F0B8FC3D
:1073A4002800F8F759FF80B2FEBD000041540000E8
:1073B4002DE9FE4F04000D000020002694F8591119
:1073C400214491F893108DF800109DF800100029C5
:1073D40002293AD9091F00F0E880491E00F0EF8025
:1073E400491E00F00081491E02292FD9C91E00F050
:1073F4000E81491E012929D9891E5ED0491E00F03B
:10740400B980491E21D0491E20D0891E1ED0491E94
:1074140000F0A080891E012940F2F980C91E0129CB
:1074240040F2F580C91E00F08280491E062940F210
:10743400EE80C91F13D0491E07D0491F00F0E78012
:10744400891E012940F2E380E9E0E8E0A2A12800D6
:1074540001F07EFC002801D001200600DFE09EA19F
:10746400280001F075FC002826D001200600022720
:1074740015F1080814F5AA793A0041464846FEF782
:107484003BFE5FF0020915F10B0A14F5AB7B4A468B
:1074940051465846FEF730FE0A22022114F5AA701E
:1074A40001F0C6FC84F85A010A22022114F5AB70DB
:1074B40001F0BEFC84F85B01B1E087A1280001F073
:1074C40047FC002832D085A1280001F041FC0F2799
:1074D400401D029014F15A083A0002994046FEF702
:1074E4000BFE302084F86900002084F86A0014F14F
:1074F400490114F15A0001F065FC012006005FF017
:107504000F0814F149000190DFF8EC964246019906
:107514004846FEF7F1FD5FF00F0914F15A0ADFF84F
:10752400DCB64A4651465846FEF7E6FD77E06AA1C6
:10753400280001F00DFC00280BD0112715F10208DA
:1075440014F16B093A0041464846FEF7D5FD012087
:10755400060064E060A1280001F0FAFB002808D0CE
:10756400DFF89C16280001F0F3FB002801D001206D
:10757400060054E058A1280001F0EAFB002813D0CB
:1075840014F18D021C21280000F0AEF8002809D166
:1075940006275FF0000814F18D0942463900484679
:1075A40000F01AFC0120060039E0DFF85816280024
:1075B40001F0CEFB002801D0012006002FE0DFF807
:1075C4004816280001F0C4FB00280BD044A1280071
:1075D40001F0BEFB4178312902D04178352901D12F
:1075E40001210E001BE0DFF82416280001F0B0FB97
:1075F40000280BD03AA1280001F0AAFB41783129D8
:1076040002D04178352901D101210E0007E032A1D1
:10761400280001F09DFB002801D001200600300065
:10762400C0B2BDE8FE8F10B4002190F85921024485
:1076340092F893201300DBB2002B012B2BD99B1E55
:10764400012B19D99B1E0A2B34D90B3B012B22D9B0
:10765400DB1E012B2ED9DB1E012B2BD9DB1E012BAC
:1076640028D9DB1E082B25D9093B14D05B1F21D058
:107674009B1E012B1ED92CE0002190F859310344A4
:1076840083F8341190F85911491C80F859110021DC
:1076940080F864111DE0002190F85931034483F807
:1076A400341190F85911491C80F85911002180F8BF
:1076B40064110EE090F8641100290AD1002190F8B9
:1076C4005931034483F8341190F85911491C80F856
:1076D400591110BC704700004F4B000047534E0037
:1076E4002C000000A83500202DE9F84F04000D00FF
:1076F40016005FF0000A5FF000095FF0010B00273D
:1077040022232A00D2B292B25046010089B220004C
:1077140001F05EFC80465846C0B200281DD0B8F186
:10772400000F1AD4002083460A22022104EB080029
:10773400401C01F07DFB070018F103083800C0B2BB
:1077440015280ADB3800C0B2642806DA4846C0B2FD
:10775400375419F10109012083462F232A00D2B29C
:1077640092B24046010089B2200001F031FC824609
:107774005846C0B200281DD0BAF1000F1AD4002018
:1077840083460A22022104EB0A00401C01F050FB4C
:1077940007001AF1030A3800C0B200280AD03800E2
:1077A400C0B20D2806DA4846C0B2375419F10109AF
:1077B400012083462F232A00D2B292B25046010000
:1077C40089B2200001F004FC80465846C0B200286B
:1077D4001DD0B8F1000F1AD4002083460A220221DA
:1077E40004EB0800401C01F023FB070018F1030818
:1077F4003800C0B200280AD03800C0B2202806DA07
:107804004846C0B2375419F10109012083462C239C
:107814002A00D2B292B24046010089B2200001F09F
:10782400D7FB82465846C0B2002819D0BAF1000FDF
:1078340016D4002083460A22022104EB0A00401CCD
:1078440001F0F6FA07001AF1030A3800C0B218284A
:1078540006DA4846C0B2375419F1010901208346BB
:107864003A232A00D2B292B25046010089B22000D3
:1078740001F0AEFB80465846C0B2002819D0B8F1DA
:10788400000F16D4002083460A22022104EB0800CC
:10789400401C01F0CDFA070018F103083800C0B20B
:1078A4003C2806DA4846C0B2375419F101090120D0
:1078B40083463A232A00D2B292B24046010089B2EA
:1078C400200001F085FB82465846C0B2002819D03A
:1078D400BAF1000F16D4002083460A22022104EBD9
:1078E4000A00401C01F0A4FA07001AF1030A380048
:1078F400C0B23C2806DA4846C0B2375419F101092F
:10790400012083465846C0B2BDE8F28F2DE9F04706
:10791400C0B0040000254FF4807100226E46300090
:1079240000F05AFABA4E3078002807D12A00012113
:10793400B848FFF7E7F901203070F3E7307890F0AA
:10794400040F00F013812500B34F0721380001F024
:107954006AFC00280DD00721380001F072FC5FF4A6
:10796400E13000F063F900F0CEF90021012000F0CD
:10797400DBF9AA4F3878052802D03878062853D185
:1079840017F10608A649404601F0E2F9002805D19E
:10799400A449404601F0DCF9002813D09D4890F832
:1079A4005C11012904D12A000121FFF7ABF919E088
:1079B40090F85C01002815D102203070002000F0FE
:1079C400FFFB0FE06BA1404601F0C2F9002809D08B
:1079D400904B93F85C01002804D12A000021180080
:1079E400FFF790F9DFF82C9299F85E0140071BD558
:1079F40041464846FFF7DCFC002810D0002089F8F7
:107A040064010820A9F85E014FF40C785FF00009C6
:107A1400BA464A464146504600F0DEF904E080206A
:107A240038700020C7F82802DFF8E88198F85E0172
:107A340080072CD598F8590198F8581188421FD21C
:107A440069464046FFF73BFB40F20111884213DAD6
:107A54004FF40C795FF0000A52464946380000F0B2
:107A6400BBF971480068C8F86001684600F0A2F9E3
:107A74002420A8F85E0103E04FF48160A8F85E01B9
:107A8400B8F85E114FF6FD700140A8F85E1198F841
:107A94005E0180062FD5D8F8601198F8590108EBDB
:107AA4008000D0F8B40041185F480068814222D2B7
:107AB40098F85901404490F83401401E98F859113F
:107AC400414481F8340198F85901404490F8340154
:107AD40000280DD1B8F85E114FF6DF700140A8F808
:107AE4005E110820A8F85E01022088F8640102E013
:107AF4000220A8F85E0198F85E0100077FF512AF36
:107B04004046FFF790FD98F86401002818D1022040
:107B1400A8F85E0198F8590198F8581188421DD1C7
:107B240098F85C01012805D10120A8F85E01042021
:107B3400307013E00120A8F85E01022030700DE0DF
:107B44000120A8F85E01802030704FF4FA7000F034
:107B540008FB2A0001214046FFF7D4F8B8F85E116B
:107B64004FF6F7700140A8F85E11DBE6002000F044
:107B740027FBD7E652445900B412000878110008D4
:107B8400641200086C120008EC110008741200085A
:107B9400F81100087C1200080412000810120008F2
:107BA4001C120008741000088C1100082812000828
:107BB4009410000834120008880E0008B41000085D
:107BC400180C00080811000824110008B40E00085D
:107BD400AC0B000840120008A00F0008C40D0008F8
:107BE4006C0C0008A80C0008E40C0008F80D000850
:107BF400200D0008580D0008503400206434002083
:107C0400841200088C120008941200089C120008C8
:107C1400A8350020AC2F002000480040542B002041
:107C24009C110008AC11000838350020F0B585B06F
:107C34000400042100226D46280000F0CDF8102134
:107C4400002201AD280000F0C7F810208DF80300D1
:107C540003208DF80200504DA888ADF80000694655
:107C6400286801F009FB4D4EB088ADF80000694664
:107C7400306801F001FB4A4FB888ADF8000069464E
:107C8400386801F0F9FAB08831684861A888296831
:107C94004861B88839684861424D280001F0B2F95A
:107CA40041488188ADF8001003218DF80210182195
:107CB4008DF803106946006801F0DEFA3B488188BC
:107CC400ADF8001004218DF803106946006801F036
:107CD400D3FA01940020ADF808000020ADF80A00A2
:107CE4000020ADF80C000020ADF810000C20ADF819
:107CF4000E0001A9280001F0CDF90121280001F0AE
:107D04003FFA05B0F0BD80B527208DF800000020B3
:107D14008DF8010002208DF8020001208DF8030087
:107D2400684601F06AFB01BD70B504000D001D4EEC
:107D340040F22771300001F08CFA2200D2B240F2F6
:107D44002551300001F02BFA2A00D2B240F226610C
:107D5400300001F024FA70BD124909880906FBD5E8
:107D64000100C9B2124A1180704710B400220023E6
:107D74001A000C0092B2A4B2A2420AD2094A128892
:107D84001206FBD51A0092B2825C094C22805B1C5D
:107D9400EEE710BC70470000B4120008BC120008E3
:107DA400C412000800480040A4120008AC120008E5
:107DB4000448004010B504002000F8F74DFA010013
:107DC40089B22000FFF7D1FF0D20FFF7C5FF0A207D
:107DD400FFF7C2FF10BD000062F30F2262F31F42DF
:107DE400401810F0030308D0C91A1FD3DB0748BF9B
:107DF40000F8012D28BF20F8022D130030B41446DA
:107E04001546103928BF20E93C00FAD8490728BF95
:107E140020E90C0048BF40F8042D890028BF20F851
:107E2400022D48BF00F8012D30BC7047C91818BF97
:107E340000F8012DCB0728BF00F8012D7047000082
:107E44002DE9F14F84B00E0017009846380080B237
:107E5400800001F019FB0500002D15D0642001F00D
:107E640013FB0400002C0BD05FF064095FF0000AE0
:107E7400A346524649465846FFF7AEFF256304E041
:107E8400280001F097FB00E00024002C12D0002011
:107E9400039002940F9801900E98009043463A0084
:107EA40092B23100049800F00AF8200000F087F83C
:107EB400012001E05FF0FF3005B0BDE8F08F2DE94F
:107EC400F94F81B00C0016000C9F0D9DDDF8388031
:107ED400B00000905FF0A50BD8F830A05A46009986
:107EE4005046FFF779FFD8F8300000EB8600B0F178
:107EF400040A5FEADA0A5FEACA0A1AF007000028ED
:107F04000FD0502080F31188BFF34F8FBFF36F8FD2
:107F140040F25D32DFF89015DFF8A80501F002FCAD
:107F2400FEE7002C14D000208146B9F1140F0CD2C6
:107F340014F8090008EB090181F8340014F8090069
:107F4400002802D019F10109EFE7002088F8470062
:107F54001F2F0FD3502080F31188BFF34F8FBFF32F
:107F64006F8F40F29232DFF84015DFF8580501F0C8
:107F7400D9FBFEE71F2F01D31E200700C8F82C7081
:107F8400C8F8507018F1040001F0EFFB18F1180064
:107F940001F0EBFBC8F81080D7F11F00C8F81800F7
:107FA400C8F82480029A0199504601F01DFCC8F8D3
:107FB4000000002D01D0C5F80080BDE8F78F70B532
:107FC400040001F09CFCDFF8E4140868401C08601D
:107FD400DFF8DC542868002806D12C6008680128E2
:107FE4000DD100F00FFD0AE0DFF8C8040068002896
:107FF40005D1E06A2968C96A884200D32C60DFF899
:10800400B8040168491C01600068A064DFF8AC147E
:108014000A680123E06A83401A430A601420DFF8E7
:10802400A014E26A42430A445668A660B268E26059
:10803400221DB3685A60221DB260E26A42430A44B8
:108044006261E26A4243E36A00FB03F00858401CA1
:10805400885001F075FCDFF85C04006800280DD03E
:108064002868C06AE16A884208D25FF08050DFF86D
:1080740064140860BFF34F8FBFF36F8F70BD70B58A
:10808400040001F03CFC002C03D1DFF82404056853
:1080940000E02500281D01F092FB00280FD1DFF835
:1080A4002014EA6A142042438858002807D1DFF8D4
:1080B4000C140A680123E86A83409A430A60A86A98
:1080C400002803D015F1180001F079FBDFF8E8036C
:1080D4000168491C0160DFF8D863306885420AD121
:1080E400291DDFF8E40301F043FBDFF8E003016836
:1080F400491C016006E0DFF8B4030168491E016011
:1081040000F0D7FC01F01CFC3068854202D0280046
:1081140000F0C6FCDFF89C030068002820D030681B
:1081240085421DD1DFF8A803006800280FD0502035
:1081340080F31188BFF34F8FBFF36F8F40F2AF42CC
:10814400DFF86413DFF87C0301F0ECFAFEE75FF07C
:108154008050DFF880130860BFF34F8FBFF36F8F39
:1081640070BD38B505000024002D1DD0DFF8600374
:10817400006800280FD0502080F31188BFF34F8F80
:10818400BFF36F8F40F21C52DFF81C13DFF8340387
:1081940001F0C8FAFEE700F0D3F80021280000F04F
:1081A40047FD00F0D3F80400002C08D15FF08050A4
:1081B400DFF820130860BFF34F8FBFF36F8F31BD1B
:1081C400F8B5040001F09BFB002C03D1DFF8E002BA
:1081D400056800E02500281D01F0F1FA00280FD100
:1081E400DFF8DC12EA6A142042438858002807D1D9
:1081F400DFF8C8120A680123E86A83409A430A60D8
:10820400A86A002803D015F1180001F0D8FADFF8A5
:10821400CC62291D300001F0ABFA002001280CDAF1
:1082240005EB000191F86010012904D1002105EB50
:10823400000282F86010401CF0E701F081FBDFF8D7
:1082440074723868002805D001F059FB00F031FC45
:1082540001F076FBDFF85812086885422CD13868A3
:1082640000281ED0DFF86802006800280FD05020D4
:1082740080F31188BFF34F8FBFF36F8F40F2D26248
:10828400DFF82412DFF83C0201F04CFAFEE75FF05D
:108294008050DFF840120860BFF34F8FBFF36F8F39
:1082A4000AE03068DFF804221268904202D100200C
:1082B400086001E000F0E4F9F1BD1CB5DFF8280620
:1082C40001900020009000238022DFF82016DFF8C0
:1082D4002006FFF7B5FD0400012C02D101F0C4FB18
:1082E4000400012C17D1502080F31188BFF34F8F65
:1082F400BFF36F8F5FF0FF30DFF80C1608600120CA
:108304006C4908600020DFF8D011086001F096FE87
:1083140001F095FA10E014F1010F0DD1502080F313
:108324001188BFF34F8FBFF36F8F40F612025E497F
:10833400644801F0F7F9FEE7DFF85807006813BD59
:10834400DFF88C010168491C01607047F8B500250D
:108354000026DFF87C41206800280DD1502080F3EE
:108364001188BFF34F8FBFF36F8F40F685024E49DC
:10837400544801F0D7F9FEE701F0C1FA2068401E25
:1083840020602068002840F0828048480068002867
:108394007DD0DFF850150868002853D0C868C0683D
:1083A4000500A86A296AEA699160E9692A6A516044
:1083B400416815F11802914201D1296A41600021F6
:1083C400A9620168491E01606869E968AA68916048
:1083D400A968EA68516041682A1D914201D1E9689F
:1083E4004160002169610168491E016033490A68DE
:1083F4000123E86A83401A430A6031481421EA6A77
:108404004A4302445268AA609368EB602B1D946847
:1084140063602B1D9360EB6A4B4303446B61EB6A0F
:108424004B43EC6A01FB04F14158491CC150E86A12
:108434001F490968C96A8842ABD30120DFF8A01438
:108444000860A6E7002D01D000F033FBDFF84C767E
:108454003C68002C0CD000F043F8002803D0012025
:10846400DFF87C140860641E002CF4D1002038600E
:10847400DFF86C040068002809D0012006005FF0D2
:10848400805014490860BFF34F8FBFF36F8F01F022
:1084940057FA3000F2BDDFF8400000687047DFF89B
:1084A4005806006870470000040F0008503500208B
:1084B400403500205C3500206C3500205835002004
:1084C400E82800200C100008B43400204C350020AB
:1084D4007835002004ED00E054350020C834002035
:1084E4002DE9F0410027DFF81C060068002840F061
:1084F400BF80DFF808070468641C0460002C24D1E2
:10850400DFF8FC160868006800280FD0502080F3BC
:108514001188BFF34F8FBFF36F8F40F6B722DFF898
:108524007815DFF8E40501F0FDF8FEE7D1F80080E6
:10853400DFF8D00602680A60C0F80080DFF8C806D9
:108544000168491C016000F0B4FADFF8BC13086844
:10855400844279D3DFF8A82610680068002803D184
:108564005FF0FF3008606FE01068C068C068050005
:1085740068680600B44201D20E6065E06869EA6882
:10858400AB689A60AA68EB685A6042682B1D9A42ED
:1085940001D1EA68426000226A610268521E0260E8
:1085A400A86A002812D0A86A2A6AEB699A60EA6964
:1085B4002B6A5A60426815F118039A4201D12A6A5B
:1085C40042600022AA620268521E0260DFF83C2563
:1085D40013685FF0010CE86A1CFA00FC5CEA030310
:1085E4001360DFF818051422EB6A534303445B68F5
:1085F400AB60D3F808C0C5F80CC015F1040CD3F86F
:1086040008E0CEF804C015F1040CC3F808C0D5F88E
:108614002CC002FB0CFC8444C5F814C0D5F82CC053
:1086240002FB0CFCD5F82CE002FB0EF28258521C23
:1086340040F80C20DFF8C0050068C06AEA6A90427E
:1086440088D20120070085E7DFF8AC050068DFF871
:10865400AC14C26A142042438858022801D3012072
:1086640007009F480068002807D00120070004E0A5
:10867400DFF828040168491C01603800BDE8F08176
:1086840010B5DFF880040068002803D00120944965
:1086940008604CE0002092490860DFF87015DFF8AC
:1086A400540500680860DFF8682510680B68984274
:1086B40008D2DFF8440503689C6D08680419106843
:1086C400241A9C6508681060DFF840040068B0FA5A
:1086D40080F4D4F11F041421DFF8202401FB04F0FA
:1086E400105800280FD1502080F31188BFF34F8F0A
:1086F400BFF36F8F40F6F632DFF89C13DFF80804FF
:1087040001F010F8FEE701FB04F102EB01004168FF
:1087140049684160416810F10802914202D1416800
:10872400496841604068C068DFF8CC14086010BD37
:1087340038B504000D00002C0FD1502080F31188AF
:10874400BFF34F8FBFF36F8F40F60E42DFF848132D
:10875400DFF8B40300F0E6FFFEE7DFF89C040068EE
:1087640010F11801200001F00FF80121280000F099
:108774005FFA31BD70B504000E001500002C0FD156
:10878400502080F31188BFF34F8FBFF36F8F40F6F3
:108794004442DFF80413DFF8700300F0C3FFFEE780
:1087A4006068DFF854140A68D06182680B681A6242
:1087B4000A68183283685A600A6818328260096845
:1087C4008C622168491C2160002D02D05FF0FF30CB
:1087D40006002900300000F02BFA70BD70B50500CA
:1087E400E868C468002C0FD1502080F31188BFF3CF
:1087F4004F8FBFF36F8F40F67442DFF89C12DFF89F
:10880400080300F08FFFFEE7A06A216AE269916025
:10881400E169226A5160416814F11802914201D160
:10882400216A41600021A1620168491E0160DFF8EC
:10883400D4020068002835D16069E168A2689160BB
:10884400A168E26851604168221D914201D1E1684A
:108854004160002161610168491E0160DFF8AC12CA
:108864000A680123E06A83401A430A60DFF88C0235
:108874001421E26A4A4302445268A2609368E360A6
:10888400231D96687360231D9360E36A4B4303447E
:108894006361E36A4B43E66A01FB06F14158491CF4
:1088A400C1500FE00F494868E0618268226214F108
:1088B400180283685A6014F118028260A1620A687F
:1088C400521C0A60DFF830030068C06AE16A88421B
:1088D40004D201200121024A116000E0002070BD91
:1088E40064350020A034002074350020FC120008F8
:1088F400E5890008DFF8101309680160DFF8FC124D
:108904000968416070470000703500202DE9F0418E
:1089140004000D00002C0ED1502080F31188BFF309
:108924004F8FBFF36F8F40F6EF425B49DFF8D801FA
:1089340000F0F8FEFEE7002D0ED1502080F31188E0
:10894400BFF34F8FBFF36F8F4FF44F625249DFF87D
:10895400B80100F0E7FEFEE700F0D1FFDFF89C026B
:1089640006686768F71BDFF89012086890F86100E2
:10897400002806D00020096881F861005FF0010832
:1089840024E0286810F1010F02D15FF000081DE017
:10899400DFF8740200682168884207D06068864264
:1089A40004D35FF00108002028600FE028688742A4
:1089B40008D22868C01B28602000FFF79BFF5FF0E7
:1089C400000803E0002028605FF0010800F0B8FF11
:1089D4004046BDE8F0810120DFF838120860704796
:1089E40010B5040000F037F8444800680228F9D3B1
:1089F4005FF08050DFF834120860BFF34F8FBFF38D
:108A04006F8FEFE770B500241F2C08D23B48142168
:108A140001FB04F1084400F099FE641CF4E7DFF85C
:108A2400F851280000F092FEDFF8F061300000F009
:108A34008DFEDFF8EC0100F089FE314800F086FE7F
:108A4400DFF8E00100F082FEDFF8B4010560DFF832
:108A5400B401066070BD38B5DFF8CC512868002831
:108A640015D000F04CFF2648C068C0680400201DE3
:108A740000F0A5FE20480168491E01602868401ED8
:108A8400286000F05DFF200000F00AF8E4E731BD43
:108A9400000000001C000020040F000860350020C6
:108AA40010B50400206B00F085FD200000F082FD6D
:108AB40010BD534908680068002805D15FF0FF30F5
:108AC400DFF82012086005E00868C0680068DFF875
:108AD400141208607047DFF810020068002801D102
:108AE400012007E0DFF804020068002801D1022019
:108AF40000E000207047000050350020E8280020E6
:108B0400B4340020783500200C10000858350020BB
:108B1400F8B5040025000026002C68D0364800680B
:108B240085420FD0502080F31188BFF34F8FBFF3DD
:108B34006F8F41F24802DFF8C011DFF8C00100F086
:108B4400F1FDFEE7686D00280FD1502080F31188F5
:108B5400BFF34F8FBFF36F8F41F24902DFF89811D3
:108B6400DFF8980100F0DEFDFEE7686D401E6865E1
:108B7400E86A296D88423AD0686D002837D1281DEB
:108B840000F01DFE002807D1DFF868110A680123F0
:108B9400E86A83409A430A60286DE862E86AD0F183
:108BA4001F00A861DFF84C110A680123E86A8340BA
:108BB4001A430A601420DFF83811EA6A42430A446F
:108BC4005268AA609368EB602B1D97687B602B1D2D
:108BD4009360EB6A43430B446B61EB6A4343EF6A74
:108BE40000FB07F00858401CC85001200600300064
:108BF400F2BD0000343500204035002054350020FB
:108C04004435002048350020683500208035002098
:108C14007C35002064350020783400208C3400201A
:108C2400A0340020C83400204C35002004ED00E0BE
:108C34002DE9F04105000C0031480768DFF8A080F9
:108C44000020D8F8001081F86100D8F80000001D59
:108C540000F0B5FD002808D1D8F8000025490A68BD
:108C64000123C06A83409A430A6015F1010F1AD1A7
:108C7400002C18D023484168D8F8002091608A68F5
:108C8400D8F80030DA60D8F80020121D8B685A60DA
:108C9400D8F80020121D8A60D8F8002050610268BC
:108CA400521C02601AE0E8190600D8F80000466079
:108CB400BE4207D2D8F80000011D1348006800F036
:108CC40063FD0BE0D8F80000011D1048006800F0B7
:108CD4005BFD044801688E4200D20660BDE8F08165
:108CE40040350020703500205C35002078350020A8
:108CF400E828002058350020040F00080C10000854
:108D040054350020C8340020483500204435002064
:108D14000CB430B583B00A4606A902910446002576
:108D24000194009502AB01A9084878441E30FCF771
:108D34007FF9019A157000284EBF04460198041B60
:108D4400204603B030BC5DF80CFB00BF4375FFFF49
:108D540070B50D462C7834B970BD11F8013F167802
:108D6400B34206D0401C2146F7F73CFA28B101462D
:108D74002A4612F8013F002BEFD170BD70B40300F6
:108D84000022002400264FF6FF7000258D4214D2E5
:108D94005A5D504000221600082E0CD2C20706D598
:108DA40080B2020048F2084090EA520001E080B22A
:108DB4004008761CF0E76D1CE8E780B2C04380B23F
:108DC40070BC70472DE9F04104000D005FF000080D
:108DD40000260027002C24D02000F7F73DFA0100DC
:108DE4004FF6FE7001400020060030000A0080B2F9
:108DF40092B2904210D20D48320092B2A25C825CD0
:108E0400120133009BB223445B78C05C0243170019
:108E14002F706D1CB61CE8E788461FFA88F85FEAD5
:108E24005808404680B2BDE8F0810000340A0008CA
:108E3400F0B403000020002500260027002B00F0DA
:108E4400C5801400E4B2022C09D0082C24D00A2CCA
:108E54003FD0102C00F07F80112C58D0B6E01D00BC
:108E6400002427003C008C46E4B25FFA8CFC644585
:108E740011D22C7826003400E4B2302C03D0340014
:108E8400E4B2312C07D140003400E4B2303C201865
:108E94007F1C6D1CE6E799E01D00002427003C00C0
:108EA4008C46E4B25FFA8CFC644511D22C7826001F
:108EB4003400E4B2302C0BDB3400E4B2382C07DA93
:108EC400C0003400E4B2303C20187F1C6D1CE6E77F
:108ED4007CE01D00002427003C008C46E4B25FFACD
:108EE4008CFC644512D22C7826003400E4B2302C79
:108EF4000CDB3400E4B23A2C08DA0A246043340070
:108F0400E4B2303C20187F1C6D1CE5E75EE01D00D8
:108F1400002427003C008C46E4B25FFA8CFC6445D4
:108F240018D22C7826003400E4B2302C0ADB34004A
:108F3400E4B23A2C06DA0A2460433400E4B2303C4A
:108F4400201804E03400E4B22E2C00D002E07F1C90
:108F54006D1CDFE73AE01D00002427003C008C462E
:108F6400E4B25FFA8CFC64452FD22C7826003400DE
:108F7400E4B2302C09DB3400E4B23A2C05DA000107
:108F84003400E4B2303C20181CE03400E4B2612C1C
:108F940009DB3400E4B2672C05DA00013400E4B2E2
:108FA400573C20180EE03400E4B2412C09DB3400B5
:108FB400E4B2472C05DA00013400E4B2373C20184F
:108FC40000E002E07F1C6D1CC8E7FFE7F0BC7047BF
:108FD40070B404005FF0FF300D001600ADB2B6B2FD
:108FE400B5420CD20D00ADB2655D1E00F6B2B542BD
:108FF40003D10D00ADB2280001E0491CECE770BCC0
:109004007047000010B50400584884420AD1012179
:109014004FF4804001F04CF900214FF4804001F0FE
:1090240047F936E0524884420AD101215FF4003006
:1090340001F04CF900215FF4003001F047F928E019
:109044004C4884420AD101215FF4802001F03EF9AA
:1090540000215FF4802001F039F91AE04648844287
:109064000AD101215FF4002001F030F900215FF4FE
:10907400002001F02BF90CE04048844209D1012181
:109084005FF4801001F022F900215FF4801001F0F8
:109094001DF910BD2DE9F84F86B004000D0000261F
:1090A40000275FF000085FF000095FF0000AA8895C
:1090B4000028A346218A4CF6FF700140E88801434A
:1090C400009100982082A1894EF6F3100140AA88ED
:1090D4002889024368890243114300910098A081C2
:1090E400A18A4FF6FF400140A889014300910098EE
:1090F400A08201A801F046F81C48834501D10499D7
:1091040000E00399A089000407D5192000FB01F0B1
:109114002A685200B0FBF2F206E0192000FB01F0CD
:109124002A689200B0FBF2F26420B2FBF0F636013A
:1091340033001B09642000FB1323A089000408D515
:10914400D80032306427B0FBF7F010F00700064374
:1091540007E0180132306427B0FBF7F010F00F007D
:109164000643268107B0BDE8F08F000000380140B7
:109174000044004000480040004C004000500040C3
:109184000A00D2B2002A04D0828952F400528281A9
:1091940004E083894DF6FF721340838170472DE903
:1091A400F0410023002500275FF0000E0C0040F67C
:1091B4006A16A4B2B44280460C00E4B26409E4B274
:1091C4000E00B6B216F01F065FF0010C1CFA06FC86
:1091D400012C02D118F10C0806E0022C02D118F17E
:1091E400100801E018F114081300DBB2002B06D0BC
:1091F400D8F800305CEA0303C8F8003005E0D8F87A
:10920400003033EA0C03C8F80030BDE8F0811300E5
:10921400DBB2002B03D0838A0B43838202E0838A70
:109224008B438382704702000023080080B2B0F5AC
:10923400007F1088084201D0012000E00020C0B265
:1092440070470A0092B292050A0092B2D243028099
:10925400704770B4002200240B0040F66A159BB2DC
:10926400AB420B009BB21B0A01259D402E00B6B2F7
:10927400F643068070BC7047F0B50022002300243A
:1092840000250026002791F803C01CF00F0C91F86C
:1092940003E05FEACE6E02D58A7852EA0C0C0A78B3
:1092A40012062AD00268160000221400082C23D2C9
:1092B4005FF0010E1EFA04F215000A882A4013001A
:1092C400AB4217D1A20015000F22AA401700BE43DB
:1092D4001CFA05F21643CA78282A04D11EFA04FEA1
:1092E400C0F814E006E0CA78482A03D11EFA04FE46
:1092F400C0F810E0641CD9E706600A88B2F5807FE4
:109304002EDB4268160000221400082C27D25FF0DE
:10931400010E14F108021EFA02F215000A882A400E
:109324001300AB4219D1A20015000F22AA40170066
:10933400BE431CFA05F21643CA78282A04D114F154
:1093440008021EFA02F24261CA78482A05D114F1D1
:1093540008021EFA02FEC0F810E0641CD5E746605D
:10936400F0BDF0B40022002300250027002802D518
:109374001D4C246801E01D4C2468C0F3034586B2EB
:1093840010F4401CBCF5401F07D134F07064174A38
:10939400176837F07067176011E0C20206D5032220
:1093A400AA4013009C4354F0706408E00200520D7C
:1093B400D2B2120116FA02F2944354F070640A0015
:1093C400D2B2002A06D00200520DD2B2120116FA0D
:1093D40002F21443002802D5034A146001E0034A50
:1093E4001460F0BC704700001C0001400400014000
:1093F4001E4901431E4A11607047F0B40022002345
:109404000F24C17800291FD01949096811F4E061BB
:10941400D1F5E061090AD1F104052B00CC4045786F
:109424009D408678264035432D012A00114D06784B
:10943400AA550125067816F01F06B5400E4E07788A
:109444007F1146F8275009E00121057815F01F0522
:10945400A9400A4D0678761145F82610F0BC7047ED
:10946400074A0A400243074B1A6070470000FA0596
:109474000CED00E000E400E000E100E080E100E049
:1094840080FFFF1F08ED00E02DE9F84F04005FF0B6
:109494000009FEF755FFDFF864A2DAF8000000289F
:1094A40001D100F0CEF8002C10D0DFF8540201688E
:1094B400083114F00700091A0D005FF0FF30401B5B
:1094C400A04201D32C1901E000200400002C5AD43E
:1094D400002C58D0DFF82CB2DBF80000A04252D3A5
:1094E40089480700006806007068A04205D2306809
:1094F400002802D037003668F6E7DAF80000864222
:1095040041D07F483968026811448946316839601E
:10951400006840007168091B88421BD206EB0400F6
:10952400804618F0070000280CD0502080F31188E2
:10953400BFF34F8FBFF36F8FDC227449744800F080
:10954400F1F8FEE77068001BC8F804007460404638
:1095540000F0A4F8DBF800107068091ACBF80010CA
:109564006C48DBF800100268914202D2DBF800106C
:109574000160706850F00040706000203060664800
:109584000168491C0160FEF7E1FE19F0070000289C
:109594000DD0502080F31188BFF34F8FBFF36F8F2E
:1095A4004FF48E7259495A4800F0BCF8FEE7484619
:1095B400BDE8F28F70B504002600002C40D050485E
:1095C4000068404206443500686800280DD45020E5
:1095D40080F31188BFF34F8FBFF36F8F40F22F12C8
:1095E4004A494B4800F09EF8FEE7286800280DD051
:1095F400502080F31188BFF34F8FBFF36F8F4FF468
:1096040098724249424800F08DF8FEE768680028E5
:1096140016D52868002813D1686820F000406860D7
:10962400FEF78EFE37490A68686882180A602800C7
:1096340000F034F839480168491C0160FEF786FEE1
:1096440070BD70B44FF420523548010011F0070F7B
:1096540004D0C91DC908C900521A82180B002A482F
:10966400036000244460D41825480068241AE408E0
:10967400E400224D2C6000202E68706000202E68CB
